{
	"HelloWorld.sol": {
		"Bank": {
			"abi": [
				{
					"inputs": [],
					"stateMutability": "nonpayable",
					"type": "constructor"
				},
				{
					"inputs": [],
					"name": "bankName",
					"outputs": [
						{
							"internalType": "string",
							"name": "",
							"type": "string"
						}
					],
					"stateMutability": "view",
					"type": "function"
				},
				{
					"inputs": [],
					"name": "bankOwner",
					"outputs": [
						{
							"internalType": "address",
							"name": "",
							"type": "address"
						}
					],
					"stateMutability": "view",
					"type": "function"
				},
				{
					"inputs": [
						{
							"internalType": "address",
							"name": "",
							"type": "address"
						}
					],
					"name": "customerBalance",
					"outputs": [
						{
							"internalType": "uint256",
							"name": "",
							"type": "uint256"
						}
					],
					"stateMutability": "view",
					"type": "function"
				},
				{
					"inputs": [],
					"name": "depositMoney",
					"outputs": [],
					"stateMutability": "payable",
					"type": "function"
				},
				{
					"inputs": [],
					"name": "getBankBalance",
					"outputs": [
						{
							"internalType": "uint256",
							"name": "",
							"type": "uint256"
						}
					],
					"stateMutability": "view",
					"type": "function"
				},
				{
					"inputs": [],
					"name": "getCustomerBalance",
					"outputs": [
						{
							"internalType": "uint256",
							"name": "",
							"type": "uint256"
						}
					],
					"stateMutability": "view",
					"type": "function"
				},
				{
					"inputs": [
						{
							"internalType": "string",
							"name": "_name",
							"type": "string"
						}
					],
					"name": "setBankName",
					"outputs": [],
					"stateMutability": "nonpayable",
					"type": "function"
				},
				{
					"inputs": [
						{
							"internalType": "address payable",
							"name": "_to",
							"type": "address"
						},
						{
							"internalType": "uint256",
							"name": "_total",
							"type": "uint256"
						}
					],
					"name": "withdrawMoney",
					"outputs": [],
					"stateMutability": "nonpayable",
					"type": "function"
				}
			],
			"devdoc": {
				"kind": "dev",
				"methods": {},
				"version": 1
			},
			"evm": {
				"assembly": "    /* \"HelloWorld.sol\":66:1278  contract Bank {\r... */\n  mstore(0x40, 0x80)\n    /* \"HelloWorld.sol\":208:263  constructor() {\r... */\n  callvalue\n  dup1\n  iszero\n  tag_1\n  jumpi\n  0x00\n  dup1\n  revert\ntag_1:\n  pop\n    /* \"HelloWorld.sol\":245:255  msg.sender */\n  caller\n    /* \"HelloWorld.sol\":233:242  bankOwner */\n  0x00\n  dup1\n    /* \"HelloWorld.sol\":233:255  bankOwner = msg.sender */\n  0x0100\n  exp\n  dup2\n  sload\n  dup2\n  0xffffffffffffffffffffffffffffffffffffffff\n  mul\n  not\n  and\n  swap1\n  dup4\n  0xffffffffffffffffffffffffffffffffffffffff\n  and\n  mul\n  or\n  swap1\n  sstore\n  pop\n    /* \"HelloWorld.sol\":66:1278  contract Bank {\r... */\n  dataSize(sub_0)\n  dup1\n  dataOffset(sub_0)\n  0x00\n  codecopy\n  0x00\n  return\nstop\n\nsub_0: assembly {\n        /* \"HelloWorld.sol\":66:1278  contract Bank {\r... */\n      mstore(0x40, 0x80)\n      jumpi(tag_1, lt(calldatasize, 0x04))\n      shr(0xe0, calldataload(0x00))\n      dup1\n      0x7b83b50b\n      gt\n      tag_10\n      jumpi\n      dup1\n      0x7b83b50b\n      eq\n      tag_6\n      jumpi\n      dup1\n      0xa853409a\n      eq\n      tag_7\n      jumpi\n      dup1\n      0xe147aaa7\n      eq\n      tag_8\n      jumpi\n      dup1\n      0xf274c897\n      eq\n      tag_9\n      jumpi\n      jump(tag_1)\n    tag_10:\n      dup1\n      0x16c05aa2\n      eq\n      tag_2\n      jumpi\n      dup1\n      0x27d35801\n      eq\n      tag_3\n      jumpi\n      dup1\n      0x37ebe47b\n      eq\n      tag_4\n      jumpi\n      dup1\n      0x70142690\n      eq\n      tag_5\n      jumpi\n    tag_1:\n      0x00\n      dup1\n      revert\n        /* \"HelloWorld.sol\":272:449  function depositMoney() public payable {\r... */\n    tag_2:\n      tag_11\n      tag_12\n      jump\t// in\n    tag_11:\n      stop\n        /* \"HelloWorld.sol\":120:142  string public bankName */\n    tag_3:\n      callvalue\n      dup1\n      iszero\n      tag_13\n      jumpi\n      0x00\n      dup1\n      revert\n    tag_13:\n      pop\n      tag_14\n      tag_15\n      jump\t// in\n    tag_14:\n      mload(0x40)\n      tag_16\n      swap2\n      swap1\n      tag_17\n      jump\t// in\n    tag_16:\n      mload(0x40)\n      dup1\n      swap2\n      sub\n      swap1\n      return\n        /* \"HelloWorld.sol\":149:199  mapping(address => uint256) public customerBalance */\n    tag_4:\n      callvalue\n      dup1\n      iszero\n      tag_18\n      jumpi\n      0x00\n      dup1\n      revert\n    tag_18:\n      pop\n      tag_19\n      0x04\n      dup1\n      calldatasize\n      sub\n      dup2\n      add\n      swap1\n      tag_20\n      swap2\n      swap1\n      tag_21\n      jump\t// in\n    tag_20:\n      tag_22\n      jump\t// in\n    tag_19:\n      mload(0x40)\n      tag_23\n      swap2\n      swap1\n      tag_24\n      jump\t// in\n    tag_23:\n      mload(0x40)\n      dup1\n      swap2\n      sub\n      swap1\n      return\n        /* \"HelloWorld.sol\":454:618  function setBankName(string memory _name) external {\r... */\n    tag_5:\n      callvalue\n      dup1\n      iszero\n      tag_25\n      jumpi\n      0x00\n      dup1\n      revert\n    tag_25:\n      pop\n      tag_26\n      0x04\n      dup1\n      calldatasize\n      sub\n      dup2\n      add\n      swap1\n      tag_27\n      swap2\n      swap1\n      tag_28\n      jump\t// in\n    tag_27:\n      tag_29\n      jump\t// in\n    tag_26:\n      stop\n        /* \"HelloWorld.sol\":1014:1275  function getBankBalance() public view returns (uint256) {\r... */\n    tag_6:\n      callvalue\n      dup1\n      iszero\n      tag_30\n      jumpi\n      0x00\n      dup1\n      revert\n    tag_30:\n      pop\n      tag_31\n      tag_32\n      jump\t// in\n    tag_31:\n      mload(0x40)\n      tag_33\n      swap2\n      swap1\n      tag_24\n      jump\t// in\n    tag_33:\n      mload(0x40)\n      dup1\n      swap2\n      sub\n      swap1\n      return\n        /* \"HelloWorld.sol\":891:1006  function getCustomerBalance() external view returns (uint256) {\r... */\n    tag_7:\n      callvalue\n      dup1\n      iszero\n      tag_34\n      jumpi\n      0x00\n      dup1\n      revert\n    tag_34:\n      pop\n      tag_35\n      tag_36\n      jump\t// in\n    tag_35:\n      mload(0x40)\n      tag_37\n      swap2\n      swap1\n      tag_24\n      jump\t// in\n    tag_37:\n      mload(0x40)\n      dup1\n      swap2\n      sub\n      swap1\n      return\n        /* \"HelloWorld.sol\":89:113  address public bankOwner */\n    tag_8:\n      callvalue\n      dup1\n      iszero\n      tag_38\n      jumpi\n      0x00\n      dup1\n      revert\n    tag_38:\n      pop\n      tag_39\n      tag_40\n      jump\t// in\n    tag_39:\n      mload(0x40)\n      tag_41\n      swap2\n      swap1\n      tag_42\n      jump\t// in\n    tag_41:\n      mload(0x40)\n      dup1\n      swap2\n      sub\n      swap1\n      return\n        /* \"HelloWorld.sol\":626:878  function withdrawMoney(address payable _to, uint256 _total) public {\r... */\n    tag_9:\n      callvalue\n      dup1\n      iszero\n      tag_43\n      jumpi\n      0x00\n      dup1\n      revert\n    tag_43:\n      pop\n      tag_44\n      0x04\n      dup1\n      calldatasize\n      sub\n      dup2\n      add\n      swap1\n      tag_45\n      swap2\n      swap1\n      tag_46\n      jump\t// in\n    tag_45:\n      tag_47\n      jump\t// in\n    tag_44:\n      stop\n        /* \"HelloWorld.sol\":272:449  function depositMoney() public payable {\r... */\n    tag_12:\n        /* \"HelloWorld.sol\":343:344  0 */\n      0x00\n        /* \"HelloWorld.sol\":330:339  msg.value */\n      callvalue\n        /* \"HelloWorld.sol\":330:344  msg.value != 0 */\n      eq\n      iszero\n        /* \"HelloWorld.sol\":322:390  require(msg.value != 0, \"You need to deposit some amount of money!\") */\n      tag_49\n      jumpi\n      mload(0x40)\n      0x08c379a000000000000000000000000000000000000000000000000000000000\n      dup2\n      mstore\n      0x04\n      add\n      tag_50\n      swap1\n      tag_51\n      jump\t// in\n    tag_50:\n      mload(0x40)\n      dup1\n      swap2\n      sub\n      swap1\n      revert\n    tag_49:\n        /* \"HelloWorld.sol\":432:441  msg.value */\n      callvalue\n        /* \"HelloWorld.sol\":401:416  customerBalance */\n      0x02\n        /* \"HelloWorld.sol\":401:428  customerBalance[msg.sender] */\n      0x00\n        /* \"HelloWorld.sol\":417:427  msg.sender */\n      caller\n        /* \"HelloWorld.sol\":401:428  customerBalance[msg.sender] */\n      0xffffffffffffffffffffffffffffffffffffffff\n      and\n      0xffffffffffffffffffffffffffffffffffffffff\n      and\n      dup2\n      mstore\n      0x20\n      add\n      swap1\n      dup2\n      mstore\n      0x20\n      add\n      0x00\n      keccak256\n      0x00\n        /* \"HelloWorld.sol\":401:441  customerBalance[msg.sender] += msg.value */\n      dup3\n      dup3\n      sload\n      tag_52\n      swap2\n      swap1\n      tag_53\n      jump\t// in\n    tag_52:\n      swap3\n      pop\n      pop\n      dup2\n      swap1\n      sstore\n      pop\n        /* \"HelloWorld.sol\":272:449  function depositMoney() public payable {\r... */\n      jump\t// out\n        /* \"HelloWorld.sol\":120:142  string public bankName */\n    tag_15:\n      0x01\n      dup1\n      sload\n      tag_54\n      swap1\n      tag_55\n      jump\t// in\n    tag_54:\n      dup1\n      0x1f\n      add\n      0x20\n      dup1\n      swap2\n      div\n      mul\n      0x20\n      add\n      mload(0x40)\n      swap1\n      dup2\n      add\n      0x40\n      mstore\n      dup1\n      swap3\n      swap2\n      swap1\n      dup2\n      dup2\n      mstore\n      0x20\n      add\n      dup3\n      dup1\n      sload\n      tag_56\n      swap1\n      tag_55\n      jump\t// in\n    tag_56:\n      dup1\n      iszero\n      tag_57\n      jumpi\n      dup1\n      0x1f\n      lt\n      tag_58\n      jumpi\n      0x0100\n      dup1\n      dup4\n      sload\n      div\n      mul\n      dup4\n      mstore\n      swap2\n      0x20\n      add\n      swap2\n      jump(tag_57)\n    tag_58:\n      dup3\n      add\n      swap2\n      swap1\n      0x00\n      mstore\n      keccak256(0x00, 0x20)\n      swap1\n    tag_59:\n      dup2\n      sload\n      dup2\n      mstore\n      swap1\n      0x01\n      add\n      swap1\n      0x20\n      add\n      dup1\n      dup4\n      gt\n      tag_59\n      jumpi\n      dup3\n      swap1\n      sub\n      0x1f\n      and\n      dup3\n      add\n      swap2\n    tag_57:\n      pop\n      pop\n      pop\n      pop\n      pop\n      dup2\n      jump\t// out\n        /* \"HelloWorld.sol\":149:199  mapping(address => uint256) public customerBalance */\n    tag_22:\n      mstore(0x20, 0x02)\n      dup1\n      0x00\n      mstore\n      keccak256(0x00, 0x40)\n      0x00\n      swap2\n      pop\n      swap1\n      pop\n      sload\n      dup2\n      jump\t// out\n        /* \"HelloWorld.sol\":454:618  function setBankName(string memory _name) external {\r... */\n    tag_29:\n        /* \"HelloWorld.sol\":531:540  bankOwner */\n      0x00\n      dup1\n      sload\n      swap1\n      0x0100\n      exp\n      swap1\n      div\n      0xffffffffffffffffffffffffffffffffffffffff\n      and\n        /* \"HelloWorld.sol\":517:540  msg.sender == bankOwner */\n      0xffffffffffffffffffffffffffffffffffffffff\n      and\n        /* \"HelloWorld.sol\":517:527  msg.sender */\n      caller\n        /* \"HelloWorld.sol\":517:540  msg.sender == bankOwner */\n      0xffffffffffffffffffffffffffffffffffffffff\n      and\n      eq\n        /* \"HelloWorld.sol\":509:594  require(msg.sender == bankOwner, \"You must be the owner to set the name of the bank\") */\n      tag_61\n      jumpi\n      mload(0x40)\n      0x08c379a000000000000000000000000000000000000000000000000000000000\n      dup2\n      mstore\n      0x04\n      add\n      tag_62\n      swap1\n      tag_63\n      jump\t// in\n    tag_62:\n      mload(0x40)\n      dup1\n      swap2\n      sub\n      swap1\n      revert\n    tag_61:\n        /* \"HelloWorld.sol\":609:614  _name */\n      dup1\n        /* \"HelloWorld.sol\":598:606  bankName */\n      0x01\n        /* \"HelloWorld.sol\":598:614  bankName = _name */\n      swap1\n      dup1\n      mload\n      swap1\n      0x20\n      add\n      swap1\n      tag_64\n      swap3\n      swap2\n      swap1\n      tag_65\n      jump\t// in\n    tag_64:\n      pop\n        /* \"HelloWorld.sol\":454:618  function setBankName(string memory _name) external {\r... */\n      pop\n      jump\t// out\n        /* \"HelloWorld.sol\":1014:1275  function getBankBalance() public view returns (uint256) {\r... */\n    tag_32:\n        /* \"HelloWorld.sol\":1061:1068  uint256 */\n      0x00\n        /* \"HelloWorld.sol\":1161:1170  bankOwner */\n      dup1\n      0x00\n      swap1\n      sload\n      swap1\n      0x0100\n      exp\n      swap1\n      div\n      0xffffffffffffffffffffffffffffffffffffffff\n      and\n        /* \"HelloWorld.sol\":1147:1170  msg.sender == bankOwner */\n      0xffffffffffffffffffffffffffffffffffffffff\n      and\n        /* \"HelloWorld.sol\":1147:1157  msg.sender */\n      caller\n        /* \"HelloWorld.sol\":1147:1170  msg.sender == bankOwner */\n      0xffffffffffffffffffffffffffffffffffffffff\n      and\n      eq\n        /* \"HelloWorld.sol\":1139:1228  require(msg.sender == bankOwner,\"You must be the owner of the bank to see all balances.\") */\n      tag_67\n      jumpi\n      mload(0x40)\n      0x08c379a000000000000000000000000000000000000000000000000000000000\n      dup2\n      mstore\n      0x04\n      add\n      tag_68\n      swap1\n      tag_69\n      jump\t// in\n    tag_68:\n      mload(0x40)\n      dup1\n      swap2\n      sub\n      swap1\n      revert\n    tag_67:\n        /* \"HelloWorld.sol\":1246:1267  address(this).balance */\n      selfbalance\n        /* \"HelloWorld.sol\":1239:1267  return address(this).balance */\n      swap1\n      pop\n        /* \"HelloWorld.sol\":1014:1275  function getBankBalance() public view returns (uint256) {\r... */\n      swap1\n      jump\t// out\n        /* \"HelloWorld.sol\":891:1006  function getCustomerBalance() external view returns (uint256) {\r... */\n    tag_36:\n        /* \"HelloWorld.sol\":944:951  uint256 */\n      0x00\n        /* \"HelloWorld.sol\":971:986  customerBalance */\n      0x02\n        /* \"HelloWorld.sol\":971:998  customerBalance[msg.sender] */\n      0x00\n        /* \"HelloWorld.sol\":987:997  msg.sender */\n      caller\n        /* \"HelloWorld.sol\":971:998  customerBalance[msg.sender] */\n      0xffffffffffffffffffffffffffffffffffffffff\n      and\n      0xffffffffffffffffffffffffffffffffffffffff\n      and\n      dup2\n      mstore\n      0x20\n      add\n      swap1\n      dup2\n      mstore\n      0x20\n      add\n      0x00\n      keccak256\n      sload\n        /* \"HelloWorld.sol\":964:998  return customerBalance[msg.sender] */\n      swap1\n      pop\n        /* \"HelloWorld.sol\":891:1006  function getCustomerBalance() external view returns (uint256) {\r... */\n      swap1\n      jump\t// out\n        /* \"HelloWorld.sol\":89:113  address public bankOwner */\n    tag_40:\n      0x00\n      dup1\n      sload\n      swap1\n      0x0100\n      exp\n      swap1\n      div\n      0xffffffffffffffffffffffffffffffffffffffff\n      and\n      dup2\n      jump\t// out\n        /* \"HelloWorld.sol\":626:878  function withdrawMoney(address payable _to, uint256 _total) public {\r... */\n    tag_47:\n        /* \"HelloWorld.sol\":722:737  customerBalance */\n      0x02\n        /* \"HelloWorld.sol\":722:749  customerBalance[msg.sender] */\n      0x00\n        /* \"HelloWorld.sol\":738:748  msg.sender */\n      caller\n        /* \"HelloWorld.sol\":722:749  customerBalance[msg.sender] */\n      0xffffffffffffffffffffffffffffffffffffffff\n      and\n      0xffffffffffffffffffffffffffffffffffffffff\n      and\n      dup2\n      mstore\n      0x20\n      add\n      swap1\n      dup2\n      mstore\n      0x20\n      add\n      0x00\n      keccak256\n      sload\n        /* \"HelloWorld.sol\":712:718  _total */\n      dup2\n        /* \"HelloWorld.sol\":712:749  _total <= customerBalance[msg.sender] */\n      gt\n      iszero\n        /* \"HelloWorld.sol\":704:791  require(_total <= customerBalance[msg.sender], \"You have insuffient funds to withdraw\") */\n      tag_72\n      jumpi\n      mload(0x40)\n      0x08c379a000000000000000000000000000000000000000000000000000000000\n      dup2\n      mstore\n      0x04\n      add\n      tag_73\n      swap1\n      tag_74\n      jump\t// in\n    tag_73:\n      mload(0x40)\n      dup1\n      swap2\n      sub\n      swap1\n      revert\n    tag_72:\n        /* \"HelloWorld.sol\":833:839  _total */\n      dup1\n        /* \"HelloWorld.sol\":802:817  customerBalance */\n      0x02\n        /* \"HelloWorld.sol\":802:829  customerBalance[msg.sender] */\n      0x00\n        /* \"HelloWorld.sol\":818:828  msg.sender */\n      caller\n        /* \"HelloWorld.sol\":802:829  customerBalance[msg.sender] */\n      0xffffffffffffffffffffffffffffffffffffffff\n      and\n      0xffffffffffffffffffffffffffffffffffffffff\n      and\n      dup2\n      mstore\n      0x20\n      add\n      swap1\n      dup2\n      mstore\n      0x20\n      add\n      0x00\n      keccak256\n      0x00\n        /* \"HelloWorld.sol\":802:839  customerBalance[msg.sender] -= _total */\n      dup3\n      dup3\n      sload\n      tag_75\n      swap2\n      swap1\n      tag_76\n      jump\t// in\n    tag_75:\n      swap3\n      pop\n      pop\n      dup2\n      swap1\n      sstore\n      pop\n        /* \"HelloWorld.sol\":850:853  _to */\n      dup2\n        /* \"HelloWorld.sol\":850:862  _to.transfer */\n      0xffffffffffffffffffffffffffffffffffffffff\n      and\n        /* \"HelloWorld.sol\":850:870  _to.transfer(_total) */\n      0x08fc\n        /* \"HelloWorld.sol\":863:869  _total */\n      dup3\n        /* \"HelloWorld.sol\":850:870  _to.transfer(_total) */\n      swap1\n      dup2\n      iszero\n      mul\n      swap1\n      mload(0x40)\n      0x00\n      mload(0x40)\n      dup1\n      dup4\n      sub\n      dup2\n      dup6\n      dup9\n      dup9\n      call\n      swap4\n      pop\n      pop\n      pop\n      pop\n      iszero\n      dup1\n      iszero\n      tag_78\n      jumpi\n      returndatasize\n      0x00\n      dup1\n      returndatacopy\n      revert(0x00, returndatasize)\n    tag_78:\n      pop\n        /* \"HelloWorld.sol\":626:878  function withdrawMoney(address payable _to, uint256 _total) public {\r... */\n      pop\n      pop\n      jump\t// out\n    tag_65:\n      dup3\n      dup1\n      sload\n      tag_79\n      swap1\n      tag_55\n      jump\t// in\n    tag_79:\n      swap1\n      0x00\n      mstore\n      keccak256(0x00, 0x20)\n      swap1\n      0x1f\n      add\n      0x20\n      swap1\n      div\n      dup2\n      add\n      swap3\n      dup3\n      tag_81\n      jumpi\n      0x00\n      dup6\n      sstore\n      jump(tag_80)\n    tag_81:\n      dup3\n      0x1f\n      lt\n      tag_82\n      jumpi\n      dup1\n      mload\n      not(0xff)\n      and\n      dup4\n      dup1\n      add\n      or\n      dup6\n      sstore\n      jump(tag_80)\n    tag_82:\n      dup3\n      dup1\n      add\n      0x01\n      add\n      dup6\n      sstore\n      dup3\n      iszero\n      tag_80\n      jumpi\n      swap2\n      dup3\n      add\n    tag_83:\n      dup3\n      dup2\n      gt\n      iszero\n      tag_84\n      jumpi\n      dup3\n      mload\n      dup3\n      sstore\n      swap2\n      0x20\n      add\n      swap2\n      swap1\n      0x01\n      add\n      swap1\n      jump(tag_83)\n    tag_84:\n    tag_80:\n      pop\n      swap1\n      pop\n      tag_85\n      swap2\n      swap1\n      tag_86\n      jump\t// in\n    tag_85:\n      pop\n      swap1\n      jump\t// out\n    tag_86:\n    tag_87:\n      dup1\n      dup3\n      gt\n      iszero\n      tag_88\n      jumpi\n      0x00\n      dup2\n      0x00\n      swap1\n      sstore\n      pop\n      0x01\n      add\n      jump(tag_87)\n    tag_88:\n      pop\n      swap1\n      jump\t// out\n        /* \"#utility.yul\":7:419   */\n    tag_90:\n        /* \"#utility.yul\":85:90   */\n      0x00\n        /* \"#utility.yul\":110:176   */\n      tag_92\n        /* \"#utility.yul\":126:175   */\n      tag_93\n        /* \"#utility.yul\":168:174   */\n      dup5\n        /* \"#utility.yul\":126:175   */\n      tag_94\n      jump\t// in\n    tag_93:\n        /* \"#utility.yul\":110:176   */\n      tag_95\n      jump\t// in\n    tag_92:\n        /* \"#utility.yul\":101:176   */\n      swap1\n      pop\n        /* \"#utility.yul\":199:205   */\n      dup3\n        /* \"#utility.yul\":192:197   */\n      dup2\n        /* \"#utility.yul\":185:206   */\n      mstore\n        /* \"#utility.yul\":237:241   */\n      0x20\n        /* \"#utility.yul\":230:235   */\n      dup2\n        /* \"#utility.yul\":226:242   */\n      add\n        /* \"#utility.yul\":275:278   */\n      dup5\n        /* \"#utility.yul\":266:272   */\n      dup5\n        /* \"#utility.yul\":261:264   */\n      dup5\n        /* \"#utility.yul\":257:273   */\n      add\n        /* \"#utility.yul\":254:279   */\n      gt\n        /* \"#utility.yul\":251:363   */\n      iszero\n      tag_96\n      jumpi\n        /* \"#utility.yul\":282:361   */\n      tag_97\n      tag_98\n      jump\t// in\n    tag_97:\n        /* \"#utility.yul\":251:363   */\n    tag_96:\n        /* \"#utility.yul\":372:413   */\n      tag_99\n        /* \"#utility.yul\":406:412   */\n      dup5\n        /* \"#utility.yul\":401:404   */\n      dup3\n        /* \"#utility.yul\":396:399   */\n      dup6\n        /* \"#utility.yul\":372:413   */\n      tag_100\n      jump\t// in\n    tag_99:\n        /* \"#utility.yul\":91:419   */\n      pop\n        /* \"#utility.yul\":7:419   */\n      swap4\n      swap3\n      pop\n      pop\n      pop\n      jump\t// out\n        /* \"#utility.yul\":425:564   */\n    tag_101:\n        /* \"#utility.yul\":471:476   */\n      0x00\n        /* \"#utility.yul\":509:515   */\n      dup2\n        /* \"#utility.yul\":496:516   */\n      calldataload\n        /* \"#utility.yul\":487:516   */\n      swap1\n      pop\n        /* \"#utility.yul\":525:558   */\n      tag_103\n        /* \"#utility.yul\":552:557   */\n      dup2\n        /* \"#utility.yul\":525:558   */\n      tag_104\n      jump\t// in\n    tag_103:\n        /* \"#utility.yul\":425:564   */\n      swap3\n      swap2\n      pop\n      pop\n      jump\t// out\n        /* \"#utility.yul\":570:725   */\n    tag_105:\n        /* \"#utility.yul\":624:629   */\n      0x00\n        /* \"#utility.yul\":662:668   */\n      dup2\n        /* \"#utility.yul\":649:669   */\n      calldataload\n        /* \"#utility.yul\":640:669   */\n      swap1\n      pop\n        /* \"#utility.yul\":678:719   */\n      tag_107\n        /* \"#utility.yul\":713:718   */\n      dup2\n        /* \"#utility.yul\":678:719   */\n      tag_108\n      jump\t// in\n    tag_107:\n        /* \"#utility.yul\":570:725   */\n      swap3\n      swap2\n      pop\n      pop\n      jump\t// out\n        /* \"#utility.yul\":745:1085   */\n    tag_109:\n        /* \"#utility.yul\":801:806   */\n      0x00\n        /* \"#utility.yul\":850:853   */\n      dup3\n        /* \"#utility.yul\":843:847   */\n      0x1f\n        /* \"#utility.yul\":835:841   */\n      dup4\n        /* \"#utility.yul\":831:848   */\n      add\n        /* \"#utility.yul\":827:854   */\n      slt\n        /* \"#utility.yul\":817:939   */\n      tag_111\n      jumpi\n        /* \"#utility.yul\":858:937   */\n      tag_112\n      tag_113\n      jump\t// in\n    tag_112:\n        /* \"#utility.yul\":817:939   */\n    tag_111:\n        /* \"#utility.yul\":975:981   */\n      dup2\n        /* \"#utility.yul\":962:982   */\n      calldataload\n        /* \"#utility.yul\":1000:1079   */\n      tag_114\n        /* \"#utility.yul\":1075:1078   */\n      dup5\n        /* \"#utility.yul\":1067:1073   */\n      dup3\n        /* \"#utility.yul\":1060:1064   */\n      0x20\n        /* \"#utility.yul\":1052:1058   */\n      dup7\n        /* \"#utility.yul\":1048:1065   */\n      add\n        /* \"#utility.yul\":1000:1079   */\n      tag_90\n      jump\t// in\n    tag_114:\n        /* \"#utility.yul\":991:1079   */\n      swap2\n      pop\n        /* \"#utility.yul\":807:1085   */\n      pop\n        /* \"#utility.yul\":745:1085   */\n      swap3\n      swap2\n      pop\n      pop\n      jump\t// out\n        /* \"#utility.yul\":1091:1230   */\n    tag_115:\n        /* \"#utility.yul\":1137:1142   */\n      0x00\n        /* \"#utility.yul\":1175:1181   */\n      dup2\n        /* \"#utility.yul\":1162:1182   */\n      calldataload\n        /* \"#utility.yul\":1153:1182   */\n      swap1\n      pop\n        /* \"#utility.yul\":1191:1224   */\n      tag_117\n        /* \"#utility.yul\":1218:1223   */\n      dup2\n        /* \"#utility.yul\":1191:1224   */\n      tag_118\n      jump\t// in\n    tag_117:\n        /* \"#utility.yul\":1091:1230   */\n      swap3\n      swap2\n      pop\n      pop\n      jump\t// out\n        /* \"#utility.yul\":1236:1565   */\n    tag_21:\n        /* \"#utility.yul\":1295:1301   */\n      0x00\n        /* \"#utility.yul\":1344:1346   */\n      0x20\n        /* \"#utility.yul\":1332:1341   */\n      dup3\n        /* \"#utility.yul\":1323:1330   */\n      dup5\n        /* \"#utility.yul\":1319:1342   */\n      sub\n        /* \"#utility.yul\":1315:1347   */\n      slt\n        /* \"#utility.yul\":1312:1431   */\n      iszero\n      tag_120\n      jumpi\n        /* \"#utility.yul\":1350:1429   */\n      tag_121\n      tag_122\n      jump\t// in\n    tag_121:\n        /* \"#utility.yul\":1312:1431   */\n    tag_120:\n        /* \"#utility.yul\":1470:1471   */\n      0x00\n        /* \"#utility.yul\":1495:1548   */\n      tag_123\n        /* \"#utility.yul\":1540:1547   */\n      dup5\n        /* \"#utility.yul\":1531:1537   */\n      dup3\n        /* \"#utility.yul\":1520:1529   */\n      dup6\n        /* \"#utility.yul\":1516:1538   */\n      add\n        /* \"#utility.yul\":1495:1548   */\n      tag_101\n      jump\t// in\n    tag_123:\n        /* \"#utility.yul\":1485:1548   */\n      swap2\n      pop\n        /* \"#utility.yul\":1441:1558   */\n      pop\n        /* \"#utility.yul\":1236:1565   */\n      swap3\n      swap2\n      pop\n      pop\n      jump\t// out\n        /* \"#utility.yul\":1571:2061   */\n    tag_46:\n        /* \"#utility.yul\":1647:1653   */\n      0x00\n        /* \"#utility.yul\":1655:1661   */\n      dup1\n        /* \"#utility.yul\":1704:1706   */\n      0x40\n        /* \"#utility.yul\":1692:1701   */\n      dup4\n        /* \"#utility.yul\":1683:1690   */\n      dup6\n        /* \"#utility.yul\":1679:1702   */\n      sub\n        /* \"#utility.yul\":1675:1707   */\n      slt\n        /* \"#utility.yul\":1672:1791   */\n      iszero\n      tag_125\n      jumpi\n        /* \"#utility.yul\":1710:1789   */\n      tag_126\n      tag_122\n      jump\t// in\n    tag_126:\n        /* \"#utility.yul\":1672:1791   */\n    tag_125:\n        /* \"#utility.yul\":1830:1831   */\n      0x00\n        /* \"#utility.yul\":1855:1916   */\n      tag_127\n        /* \"#utility.yul\":1908:1915   */\n      dup6\n        /* \"#utility.yul\":1899:1905   */\n      dup3\n        /* \"#utility.yul\":1888:1897   */\n      dup7\n        /* \"#utility.yul\":1884:1906   */\n      add\n        /* \"#utility.yul\":1855:1916   */\n      tag_105\n      jump\t// in\n    tag_127:\n        /* \"#utility.yul\":1845:1916   */\n      swap3\n      pop\n        /* \"#utility.yul\":1801:1926   */\n      pop\n        /* \"#utility.yul\":1965:1967   */\n      0x20\n        /* \"#utility.yul\":1991:2044   */\n      tag_128\n        /* \"#utility.yul\":2036:2043   */\n      dup6\n        /* \"#utility.yul\":2027:2033   */\n      dup3\n        /* \"#utility.yul\":2016:2025   */\n      dup7\n        /* \"#utility.yul\":2012:2034   */\n      add\n        /* \"#utility.yul\":1991:2044   */\n      tag_115\n      jump\t// in\n    tag_128:\n        /* \"#utility.yul\":1981:2044   */\n      swap2\n      pop\n        /* \"#utility.yul\":1936:2054   */\n      pop\n        /* \"#utility.yul\":1571:2061   */\n      swap3\n      pop\n      swap3\n      swap1\n      pop\n      jump\t// out\n        /* \"#utility.yul\":2067:2576   */\n    tag_28:\n        /* \"#utility.yul\":2136:2142   */\n      0x00\n        /* \"#utility.yul\":2185:2187   */\n      0x20\n        /* \"#utility.yul\":2173:2182   */\n      dup3\n        /* \"#utility.yul\":2164:2171   */\n      dup5\n        /* \"#utility.yul\":2160:2183   */\n      sub\n        /* \"#utility.yul\":2156:2188   */\n      slt\n        /* \"#utility.yul\":2153:2272   */\n      iszero\n      tag_130\n      jumpi\n        /* \"#utility.yul\":2191:2270   */\n      tag_131\n      tag_122\n      jump\t// in\n    tag_131:\n        /* \"#utility.yul\":2153:2272   */\n    tag_130:\n        /* \"#utility.yul\":2339:2340   */\n      0x00\n        /* \"#utility.yul\":2328:2337   */\n      dup3\n        /* \"#utility.yul\":2324:2341   */\n      add\n        /* \"#utility.yul\":2311:2342   */\n      calldataload\n        /* \"#utility.yul\":2369:2387   */\n      0xffffffffffffffff\n        /* \"#utility.yul\":2361:2367   */\n      dup2\n        /* \"#utility.yul\":2358:2388   */\n      gt\n        /* \"#utility.yul\":2355:2472   */\n      iszero\n      tag_132\n      jumpi\n        /* \"#utility.yul\":2391:2470   */\n      tag_133\n      tag_134\n      jump\t// in\n    tag_133:\n        /* \"#utility.yul\":2355:2472   */\n    tag_132:\n        /* \"#utility.yul\":2496:2559   */\n      tag_135\n        /* \"#utility.yul\":2551:2558   */\n      dup5\n        /* \"#utility.yul\":2542:2548   */\n      dup3\n        /* \"#utility.yul\":2531:2540   */\n      dup6\n        /* \"#utility.yul\":2527:2549   */\n      add\n        /* \"#utility.yul\":2496:2559   */\n      tag_109\n      jump\t// in\n    tag_135:\n        /* \"#utility.yul\":2486:2559   */\n      swap2\n      pop\n        /* \"#utility.yul\":2282:2569   */\n      pop\n        /* \"#utility.yul\":2067:2576   */\n      swap3\n      swap2\n      pop\n      pop\n      jump\t// out\n        /* \"#utility.yul\":2582:2700   */\n    tag_136:\n        /* \"#utility.yul\":2669:2693   */\n      tag_138\n        /* \"#utility.yul\":2687:2692   */\n      dup2\n        /* \"#utility.yul\":2669:2693   */\n      tag_139\n      jump\t// in\n    tag_138:\n        /* \"#utility.yul\":2664:2667   */\n      dup3\n        /* \"#utility.yul\":2657:2694   */\n      mstore\n        /* \"#utility.yul\":2582:2700   */\n      pop\n      pop\n      jump\t// out\n        /* \"#utility.yul\":2706:3070   */\n    tag_140:\n        /* \"#utility.yul\":2794:2797   */\n      0x00\n        /* \"#utility.yul\":2822:2861   */\n      tag_142\n        /* \"#utility.yul\":2855:2860   */\n      dup3\n        /* \"#utility.yul\":2822:2861   */\n      tag_143\n      jump\t// in\n    tag_142:\n        /* \"#utility.yul\":2877:2948   */\n      tag_144\n        /* \"#utility.yul\":2941:2947   */\n      dup2\n        /* \"#utility.yul\":2936:2939   */\n      dup6\n        /* \"#utility.yul\":2877:2948   */\n      tag_145\n      jump\t// in\n    tag_144:\n        /* \"#utility.yul\":2870:2948   */\n      swap4\n      pop\n        /* \"#utility.yul\":2957:3009   */\n      tag_146\n        /* \"#utility.yul\":3002:3008   */\n      dup2\n        /* \"#utility.yul\":2997:3000   */\n      dup6\n        /* \"#utility.yul\":2990:2994   */\n      0x20\n        /* \"#utility.yul\":2983:2988   */\n      dup7\n        /* \"#utility.yul\":2979:2995   */\n      add\n        /* \"#utility.yul\":2957:3009   */\n      tag_147\n      jump\t// in\n    tag_146:\n        /* \"#utility.yul\":3034:3063   */\n      tag_148\n        /* \"#utility.yul\":3056:3062   */\n      dup2\n        /* \"#utility.yul\":3034:3063   */\n      tag_149\n      jump\t// in\n    tag_148:\n        /* \"#utility.yul\":3029:3032   */\n      dup5\n        /* \"#utility.yul\":3025:3064   */\n      add\n        /* \"#utility.yul\":3018:3064   */\n      swap2\n      pop\n        /* \"#utility.yul\":2798:3070   */\n      pop\n        /* \"#utility.yul\":2706:3070   */\n      swap3\n      swap2\n      pop\n      pop\n      jump\t// out\n        /* \"#utility.yul\":3076:3442   */\n    tag_150:\n        /* \"#utility.yul\":3218:3221   */\n      0x00\n        /* \"#utility.yul\":3239:3306   */\n      tag_152\n        /* \"#utility.yul\":3303:3305   */\n      0x25\n        /* \"#utility.yul\":3298:3301   */\n      dup4\n        /* \"#utility.yul\":3239:3306   */\n      tag_145\n      jump\t// in\n    tag_152:\n        /* \"#utility.yul\":3232:3306   */\n      swap2\n      pop\n        /* \"#utility.yul\":3315:3408   */\n      tag_153\n        /* \"#utility.yul\":3404:3407   */\n      dup3\n        /* \"#utility.yul\":3315:3408   */\n      tag_154\n      jump\t// in\n    tag_153:\n        /* \"#utility.yul\":3433:3435   */\n      0x40\n        /* \"#utility.yul\":3428:3431   */\n      dup3\n        /* \"#utility.yul\":3424:3436   */\n      add\n        /* \"#utility.yul\":3417:3436   */\n      swap1\n      pop\n        /* \"#utility.yul\":3076:3442   */\n      swap2\n      swap1\n      pop\n      jump\t// out\n        /* \"#utility.yul\":3448:3814   */\n    tag_155:\n        /* \"#utility.yul\":3590:3593   */\n      0x00\n        /* \"#utility.yul\":3611:3678   */\n      tag_157\n        /* \"#utility.yul\":3675:3677   */\n      0x29\n        /* \"#utility.yul\":3670:3673   */\n      dup4\n        /* \"#utility.yul\":3611:3678   */\n      tag_145\n      jump\t// in\n    tag_157:\n        /* \"#utility.yul\":3604:3678   */\n      swap2\n      pop\n        /* \"#utility.yul\":3687:3780   */\n      tag_158\n        /* \"#utility.yul\":3776:3779   */\n      dup3\n        /* \"#utility.yul\":3687:3780   */\n      tag_159\n      jump\t// in\n    tag_158:\n        /* \"#utility.yul\":3805:3807   */\n      0x40\n        /* \"#utility.yul\":3800:3803   */\n      dup3\n        /* \"#utility.yul\":3796:3808   */\n      add\n        /* \"#utility.yul\":3789:3808   */\n      swap1\n      pop\n        /* \"#utility.yul\":3448:3814   */\n      swap2\n      swap1\n      pop\n      jump\t// out\n        /* \"#utility.yul\":3820:4186   */\n    tag_160:\n        /* \"#utility.yul\":3962:3965   */\n      0x00\n        /* \"#utility.yul\":3983:4050   */\n      tag_162\n        /* \"#utility.yul\":4047:4049   */\n      0x31\n        /* \"#utility.yul\":4042:4045   */\n      dup4\n        /* \"#utility.yul\":3983:4050   */\n      tag_145\n      jump\t// in\n    tag_162:\n        /* \"#utility.yul\":3976:4050   */\n      swap2\n      pop\n        /* \"#utility.yul\":4059:4152   */\n      tag_163\n        /* \"#utility.yul\":4148:4151   */\n      dup3\n        /* \"#utility.yul\":4059:4152   */\n      tag_164\n      jump\t// in\n    tag_163:\n        /* \"#utility.yul\":4177:4179   */\n      0x40\n        /* \"#utility.yul\":4172:4175   */\n      dup3\n        /* \"#utility.yul\":4168:4180   */\n      add\n        /* \"#utility.yul\":4161:4180   */\n      swap1\n      pop\n        /* \"#utility.yul\":3820:4186   */\n      swap2\n      swap1\n      pop\n      jump\t// out\n        /* \"#utility.yul\":4192:4558   */\n    tag_165:\n        /* \"#utility.yul\":4334:4337   */\n      0x00\n        /* \"#utility.yul\":4355:4422   */\n      tag_167\n        /* \"#utility.yul\":4419:4421   */\n      0x36\n        /* \"#utility.yul\":4414:4417   */\n      dup4\n        /* \"#utility.yul\":4355:4422   */\n      tag_145\n      jump\t// in\n    tag_167:\n        /* \"#utility.yul\":4348:4422   */\n      swap2\n      pop\n        /* \"#utility.yul\":4431:4524   */\n      tag_168\n        /* \"#utility.yul\":4520:4523   */\n      dup3\n        /* \"#utility.yul\":4431:4524   */\n      tag_169\n      jump\t// in\n    tag_168:\n        /* \"#utility.yul\":4549:4551   */\n      0x40\n        /* \"#utility.yul\":4544:4547   */\n      dup3\n        /* \"#utility.yul\":4540:4552   */\n      add\n        /* \"#utility.yul\":4533:4552   */\n      swap1\n      pop\n        /* \"#utility.yul\":4192:4558   */\n      swap2\n      swap1\n      pop\n      jump\t// out\n        /* \"#utility.yul\":4564:4682   */\n    tag_170:\n        /* \"#utility.yul\":4651:4675   */\n      tag_172\n        /* \"#utility.yul\":4669:4674   */\n      dup2\n        /* \"#utility.yul\":4651:4675   */\n      tag_173\n      jump\t// in\n    tag_172:\n        /* \"#utility.yul\":4646:4649   */\n      dup3\n        /* \"#utility.yul\":4639:4676   */\n      mstore\n        /* \"#utility.yul\":4564:4682   */\n      pop\n      pop\n      jump\t// out\n        /* \"#utility.yul\":4688:4910   */\n    tag_42:\n        /* \"#utility.yul\":4781:4785   */\n      0x00\n        /* \"#utility.yul\":4819:4821   */\n      0x20\n        /* \"#utility.yul\":4808:4817   */\n      dup3\n        /* \"#utility.yul\":4804:4822   */\n      add\n        /* \"#utility.yul\":4796:4822   */\n      swap1\n      pop\n        /* \"#utility.yul\":4832:4903   */\n      tag_175\n        /* \"#utility.yul\":4900:4901   */\n      0x00\n        /* \"#utility.yul\":4889:4898   */\n      dup4\n        /* \"#utility.yul\":4885:4902   */\n      add\n        /* \"#utility.yul\":4876:4882   */\n      dup5\n        /* \"#utility.yul\":4832:4903   */\n      tag_136\n      jump\t// in\n    tag_175:\n        /* \"#utility.yul\":4688:4910   */\n      swap3\n      swap2\n      pop\n      pop\n      jump\t// out\n        /* \"#utility.yul\":4916:5229   */\n    tag_17:\n        /* \"#utility.yul\":5029:5033   */\n      0x00\n        /* \"#utility.yul\":5067:5069   */\n      0x20\n        /* \"#utility.yul\":5056:5065   */\n      dup3\n        /* \"#utility.yul\":5052:5070   */\n      add\n        /* \"#utility.yul\":5044:5070   */\n      swap1\n      pop\n        /* \"#utility.yul\":5116:5125   */\n      dup2\n        /* \"#utility.yul\":5110:5114   */\n      dup2\n        /* \"#utility.yul\":5106:5126   */\n      sub\n        /* \"#utility.yul\":5102:5103   */\n      0x00\n        /* \"#utility.yul\":5091:5100   */\n      dup4\n        /* \"#utility.yul\":5087:5104   */\n      add\n        /* \"#utility.yul\":5080:5127   */\n      mstore\n        /* \"#utility.yul\":5144:5222   */\n      tag_177\n        /* \"#utility.yul\":5217:5221   */\n      dup2\n        /* \"#utility.yul\":5208:5214   */\n      dup5\n        /* \"#utility.yul\":5144:5222   */\n      tag_140\n      jump\t// in\n    tag_177:\n        /* \"#utility.yul\":5136:5222   */\n      swap1\n      pop\n        /* \"#utility.yul\":4916:5229   */\n      swap3\n      swap2\n      pop\n      pop\n      jump\t// out\n        /* \"#utility.yul\":5235:5654   */\n    tag_74:\n        /* \"#utility.yul\":5401:5405   */\n      0x00\n        /* \"#utility.yul\":5439:5441   */\n      0x20\n        /* \"#utility.yul\":5428:5437   */\n      dup3\n        /* \"#utility.yul\":5424:5442   */\n      add\n        /* \"#utility.yul\":5416:5442   */\n      swap1\n      pop\n        /* \"#utility.yul\":5488:5497   */\n      dup2\n        /* \"#utility.yul\":5482:5486   */\n      dup2\n        /* \"#utility.yul\":5478:5498   */\n      sub\n        /* \"#utility.yul\":5474:5475   */\n      0x00\n        /* \"#utility.yul\":5463:5472   */\n      dup4\n        /* \"#utility.yul\":5459:5476   */\n      add\n        /* \"#utility.yul\":5452:5499   */\n      mstore\n        /* \"#utility.yul\":5516:5647   */\n      tag_179\n        /* \"#utility.yul\":5642:5646   */\n      dup2\n        /* \"#utility.yul\":5516:5647   */\n      tag_150\n      jump\t// in\n    tag_179:\n        /* \"#utility.yul\":5508:5647   */\n      swap1\n      pop\n        /* \"#utility.yul\":5235:5654   */\n      swap2\n      swap1\n      pop\n      jump\t// out\n        /* \"#utility.yul\":5660:6079   */\n    tag_51:\n        /* \"#utility.yul\":5826:5830   */\n      0x00\n        /* \"#utility.yul\":5864:5866   */\n      0x20\n        /* \"#utility.yul\":5853:5862   */\n      dup3\n        /* \"#utility.yul\":5849:5867   */\n      add\n        /* \"#utility.yul\":5841:5867   */\n      swap1\n      pop\n        /* \"#utility.yul\":5913:5922   */\n      dup2\n        /* \"#utility.yul\":5907:5911   */\n      dup2\n        /* \"#utility.yul\":5903:5923   */\n      sub\n        /* \"#utility.yul\":5899:5900   */\n      0x00\n        /* \"#utility.yul\":5888:5897   */\n      dup4\n        /* \"#utility.yul\":5884:5901   */\n      add\n        /* \"#utility.yul\":5877:5924   */\n      mstore\n        /* \"#utility.yul\":5941:6072   */\n      tag_181\n        /* \"#utility.yul\":6067:6071   */\n      dup2\n        /* \"#utility.yul\":5941:6072   */\n      tag_155\n      jump\t// in\n    tag_181:\n        /* \"#utility.yul\":5933:6072   */\n      swap1\n      pop\n        /* \"#utility.yul\":5660:6079   */\n      swap2\n      swap1\n      pop\n      jump\t// out\n        /* \"#utility.yul\":6085:6504   */\n    tag_63:\n        /* \"#utility.yul\":6251:6255   */\n      0x00\n        /* \"#utility.yul\":6289:6291   */\n      0x20\n        /* \"#utility.yul\":6278:6287   */\n      dup3\n        /* \"#utility.yul\":6274:6292   */\n      add\n        /* \"#utility.yul\":6266:6292   */\n      swap1\n      pop\n        /* \"#utility.yul\":6338:6347   */\n      dup2\n        /* \"#utility.yul\":6332:6336   */\n      dup2\n        /* \"#utility.yul\":6328:6348   */\n      sub\n        /* \"#utility.yul\":6324:6325   */\n      0x00\n        /* \"#utility.yul\":6313:6322   */\n      dup4\n        /* \"#utility.yul\":6309:6326   */\n      add\n        /* \"#utility.yul\":6302:6349   */\n      mstore\n        /* \"#utility.yul\":6366:6497   */\n      tag_183\n        /* \"#utility.yul\":6492:6496   */\n      dup2\n        /* \"#utility.yul\":6366:6497   */\n      tag_160\n      jump\t// in\n    tag_183:\n        /* \"#utility.yul\":6358:6497   */\n      swap1\n      pop\n        /* \"#utility.yul\":6085:6504   */\n      swap2\n      swap1\n      pop\n      jump\t// out\n        /* \"#utility.yul\":6510:6929   */\n    tag_69:\n        /* \"#utility.yul\":6676:6680   */\n      0x00\n        /* \"#utility.yul\":6714:6716   */\n      0x20\n        /* \"#utility.yul\":6703:6712   */\n      dup3\n        /* \"#utility.yul\":6699:6717   */\n      add\n        /* \"#utility.yul\":6691:6717   */\n      swap1\n      pop\n        /* \"#utility.yul\":6763:6772   */\n      dup2\n        /* \"#utility.yul\":6757:6761   */\n      dup2\n        /* \"#utility.yul\":6753:6773   */\n      sub\n        /* \"#utility.yul\":6749:6750   */\n      0x00\n        /* \"#utility.yul\":6738:6747   */\n      dup4\n        /* \"#utility.yul\":6734:6751   */\n      add\n        /* \"#utility.yul\":6727:6774   */\n      mstore\n        /* \"#utility.yul\":6791:6922   */\n      tag_185\n        /* \"#utility.yul\":6917:6921   */\n      dup2\n        /* \"#utility.yul\":6791:6922   */\n      tag_165\n      jump\t// in\n    tag_185:\n        /* \"#utility.yul\":6783:6922   */\n      swap1\n      pop\n        /* \"#utility.yul\":6510:6929   */\n      swap2\n      swap1\n      pop\n      jump\t// out\n        /* \"#utility.yul\":6935:7157   */\n    tag_24:\n        /* \"#utility.yul\":7028:7032   */\n      0x00\n        /* \"#utility.yul\":7066:7068   */\n      0x20\n        /* \"#utility.yul\":7055:7064   */\n      dup3\n        /* \"#utility.yul\":7051:7069   */\n      add\n        /* \"#utility.yul\":7043:7069   */\n      swap1\n      pop\n        /* \"#utility.yul\":7079:7150   */\n      tag_187\n        /* \"#utility.yul\":7147:7148   */\n      0x00\n        /* \"#utility.yul\":7136:7145   */\n      dup4\n        /* \"#utility.yul\":7132:7149   */\n      add\n        /* \"#utility.yul\":7123:7129   */\n      dup5\n        /* \"#utility.yul\":7079:7150   */\n      tag_170\n      jump\t// in\n    tag_187:\n        /* \"#utility.yul\":6935:7157   */\n      swap3\n      swap2\n      pop\n      pop\n      jump\t// out\n        /* \"#utility.yul\":7163:7292   */\n    tag_95:\n        /* \"#utility.yul\":7197:7203   */\n      0x00\n        /* \"#utility.yul\":7224:7244   */\n      tag_189\n      tag_190\n      jump\t// in\n    tag_189:\n        /* \"#utility.yul\":7214:7244   */\n      swap1\n      pop\n        /* \"#utility.yul\":7253:7286   */\n      tag_191\n        /* \"#utility.yul\":7281:7285   */\n      dup3\n        /* \"#utility.yul\":7273:7279   */\n      dup3\n        /* \"#utility.yul\":7253:7286   */\n      tag_192\n      jump\t// in\n    tag_191:\n        /* \"#utility.yul\":7163:7292   */\n      swap2\n      swap1\n      pop\n      jump\t// out\n        /* \"#utility.yul\":7298:7373   */\n    tag_190:\n        /* \"#utility.yul\":7331:7337   */\n      0x00\n        /* \"#utility.yul\":7364:7366   */\n      0x40\n        /* \"#utility.yul\":7358:7367   */\n      mload\n        /* \"#utility.yul\":7348:7367   */\n      swap1\n      pop\n        /* \"#utility.yul\":7298:7373   */\n      swap1\n      jump\t// out\n        /* \"#utility.yul\":7379:7687   */\n    tag_94:\n        /* \"#utility.yul\":7441:7445   */\n      0x00\n        /* \"#utility.yul\":7531:7549   */\n      0xffffffffffffffff\n        /* \"#utility.yul\":7523:7529   */\n      dup3\n        /* \"#utility.yul\":7520:7550   */\n      gt\n        /* \"#utility.yul\":7517:7573   */\n      iszero\n      tag_195\n      jumpi\n        /* \"#utility.yul\":7553:7571   */\n      tag_196\n      tag_197\n      jump\t// in\n    tag_196:\n        /* \"#utility.yul\":7517:7573   */\n    tag_195:\n        /* \"#utility.yul\":7591:7620   */\n      tag_198\n        /* \"#utility.yul\":7613:7619   */\n      dup3\n        /* \"#utility.yul\":7591:7620   */\n      tag_149\n      jump\t// in\n    tag_198:\n        /* \"#utility.yul\":7583:7620   */\n      swap1\n      pop\n        /* \"#utility.yul\":7675:7679   */\n      0x20\n        /* \"#utility.yul\":7669:7673   */\n      dup2\n        /* \"#utility.yul\":7665:7680   */\n      add\n        /* \"#utility.yul\":7657:7680   */\n      swap1\n      pop\n        /* \"#utility.yul\":7379:7687   */\n      swap2\n      swap1\n      pop\n      jump\t// out\n        /* \"#utility.yul\":7693:7792   */\n    tag_143:\n        /* \"#utility.yul\":7745:7751   */\n      0x00\n        /* \"#utility.yul\":7779:7784   */\n      dup2\n        /* \"#utility.yul\":7773:7785   */\n      mload\n        /* \"#utility.yul\":7763:7785   */\n      swap1\n      pop\n        /* \"#utility.yul\":7693:7792   */\n      swap2\n      swap1\n      pop\n      jump\t// out\n        /* \"#utility.yul\":7798:7967   */\n    tag_145:\n        /* \"#utility.yul\":7882:7893   */\n      0x00\n        /* \"#utility.yul\":7916:7922   */\n      dup3\n        /* \"#utility.yul\":7911:7914   */\n      dup3\n        /* \"#utility.yul\":7904:7923   */\n      mstore\n        /* \"#utility.yul\":7956:7960   */\n      0x20\n        /* \"#utility.yul\":7951:7954   */\n      dup3\n        /* \"#utility.yul\":7947:7961   */\n      add\n        /* \"#utility.yul\":7932:7961   */\n      swap1\n      pop\n        /* \"#utility.yul\":7798:7967   */\n      swap3\n      swap2\n      pop\n      pop\n      jump\t// out\n        /* \"#utility.yul\":7973:8278   */\n    tag_53:\n        /* \"#utility.yul\":8013:8016   */\n      0x00\n        /* \"#utility.yul\":8032:8052   */\n      tag_202\n        /* \"#utility.yul\":8050:8051   */\n      dup3\n        /* \"#utility.yul\":8032:8052   */\n      tag_173\n      jump\t// in\n    tag_202:\n        /* \"#utility.yul\":8027:8052   */\n      swap2\n      pop\n        /* \"#utility.yul\":8066:8086   */\n      tag_203\n        /* \"#utility.yul\":8084:8085   */\n      dup4\n        /* \"#utility.yul\":8066:8086   */\n      tag_173\n      jump\t// in\n    tag_203:\n        /* \"#utility.yul\":8061:8086   */\n      swap3\n      pop\n        /* \"#utility.yul\":8220:8221   */\n      dup3\n        /* \"#utility.yul\":8152:8218   */\n      0xffffffffffffffffffffffffffffffffffffffffffffffffffffffffffffffff\n        /* \"#utility.yul\":8148:8222   */\n      sub\n        /* \"#utility.yul\":8145:8146   */\n      dup3\n        /* \"#utility.yul\":8142:8223   */\n      gt\n        /* \"#utility.yul\":8139:8246   */\n      iszero\n      tag_204\n      jumpi\n        /* \"#utility.yul\":8226:8244   */\n      tag_205\n      tag_206\n      jump\t// in\n    tag_205:\n        /* \"#utility.yul\":8139:8246   */\n    tag_204:\n        /* \"#utility.yul\":8270:8271   */\n      dup3\n        /* \"#utility.yul\":8267:8268   */\n      dup3\n        /* \"#utility.yul\":8263:8272   */\n      add\n        /* \"#utility.yul\":8256:8272   */\n      swap1\n      pop\n        /* \"#utility.yul\":7973:8278   */\n      swap3\n      swap2\n      pop\n      pop\n      jump\t// out\n        /* \"#utility.yul\":8284:8475   */\n    tag_76:\n        /* \"#utility.yul\":8324:8328   */\n      0x00\n        /* \"#utility.yul\":8344:8364   */\n      tag_208\n        /* \"#utility.yul\":8362:8363   */\n      dup3\n        /* \"#utility.yul\":8344:8364   */\n      tag_173\n      jump\t// in\n    tag_208:\n        /* \"#utility.yul\":8339:8364   */\n      swap2\n      pop\n        /* \"#utility.yul\":8378:8398   */\n      tag_209\n        /* \"#utility.yul\":8396:8397   */\n      dup4\n        /* \"#utility.yul\":8378:8398   */\n      tag_173\n      jump\t// in\n    tag_209:\n        /* \"#utility.yul\":8373:8398   */\n      swap3\n      pop\n        /* \"#utility.yul\":8417:8418   */\n      dup3\n        /* \"#utility.yul\":8414:8415   */\n      dup3\n        /* \"#utility.yul\":8411:8419   */\n      lt\n        /* \"#utility.yul\":8408:8442   */\n      iszero\n      tag_210\n      jumpi\n        /* \"#utility.yul\":8422:8440   */\n      tag_211\n      tag_206\n      jump\t// in\n    tag_211:\n        /* \"#utility.yul\":8408:8442   */\n    tag_210:\n        /* \"#utility.yul\":8467:8468   */\n      dup3\n        /* \"#utility.yul\":8464:8465   */\n      dup3\n        /* \"#utility.yul\":8460:8469   */\n      sub\n        /* \"#utility.yul\":8452:8469   */\n      swap1\n      pop\n        /* \"#utility.yul\":8284:8475   */\n      swap3\n      swap2\n      pop\n      pop\n      jump\t// out\n        /* \"#utility.yul\":8481:8577   */\n    tag_139:\n        /* \"#utility.yul\":8518:8525   */\n      0x00\n        /* \"#utility.yul\":8547:8571   */\n      tag_213\n        /* \"#utility.yul\":8565:8570   */\n      dup3\n        /* \"#utility.yul\":8547:8571   */\n      tag_214\n      jump\t// in\n    tag_213:\n        /* \"#utility.yul\":8536:8571   */\n      swap1\n      pop\n        /* \"#utility.yul\":8481:8577   */\n      swap2\n      swap1\n      pop\n      jump\t// out\n        /* \"#utility.yul\":8583:8687   */\n    tag_215:\n        /* \"#utility.yul\":8628:8635   */\n      0x00\n        /* \"#utility.yul\":8657:8681   */\n      tag_217\n        /* \"#utility.yul\":8675:8680   */\n      dup3\n        /* \"#utility.yul\":8657:8681   */\n      tag_214\n      jump\t// in\n    tag_217:\n        /* \"#utility.yul\":8646:8681   */\n      swap1\n      pop\n        /* \"#utility.yul\":8583:8687   */\n      swap2\n      swap1\n      pop\n      jump\t// out\n        /* \"#utility.yul\":8693:8819   */\n    tag_214:\n        /* \"#utility.yul\":8730:8737   */\n      0x00\n        /* \"#utility.yul\":8770:8812   */\n      0xffffffffffffffffffffffffffffffffffffffff\n        /* \"#utility.yul\":8763:8768   */\n      dup3\n        /* \"#utility.yul\":8759:8813   */\n      and\n        /* \"#utility.yul\":8748:8813   */\n      swap1\n      pop\n        /* \"#utility.yul\":8693:8819   */\n      swap2\n      swap1\n      pop\n      jump\t// out\n        /* \"#utility.yul\":8825:8902   */\n    tag_173:\n        /* \"#utility.yul\":8862:8869   */\n      0x00\n        /* \"#utility.yul\":8891:8896   */\n      dup2\n        /* \"#utility.yul\":8880:8896   */\n      swap1\n      pop\n        /* \"#utility.yul\":8825:8902   */\n      swap2\n      swap1\n      pop\n      jump\t// out\n        /* \"#utility.yul\":8908:9062   */\n    tag_100:\n        /* \"#utility.yul\":8992:8998   */\n      dup3\n        /* \"#utility.yul\":8987:8990   */\n      dup2\n        /* \"#utility.yul\":8982:8985   */\n      dup4\n        /* \"#utility.yul\":8969:8999   */\n      calldatacopy\n        /* \"#utility.yul\":9054:9055   */\n      0x00\n        /* \"#utility.yul\":9045:9051   */\n      dup4\n        /* \"#utility.yul\":9040:9043   */\n      dup4\n        /* \"#utility.yul\":9036:9052   */\n      add\n        /* \"#utility.yul\":9029:9056   */\n      mstore\n        /* \"#utility.yul\":8908:9062   */\n      pop\n      pop\n      pop\n      jump\t// out\n        /* \"#utility.yul\":9068:9375   */\n    tag_147:\n        /* \"#utility.yul\":9136:9137   */\n      0x00\n        /* \"#utility.yul\":9146:9259   */\n    tag_222:\n        /* \"#utility.yul\":9160:9166   */\n      dup4\n        /* \"#utility.yul\":9157:9158   */\n      dup2\n        /* \"#utility.yul\":9154:9167   */\n      lt\n        /* \"#utility.yul\":9146:9259   */\n      iszero\n      tag_224\n      jumpi\n        /* \"#utility.yul\":9245:9246   */\n      dup1\n        /* \"#utility.yul\":9240:9243   */\n      dup3\n        /* \"#utility.yul\":9236:9247   */\n      add\n        /* \"#utility.yul\":9230:9248   */\n      mload\n        /* \"#utility.yul\":9226:9227   */\n      dup2\n        /* \"#utility.yul\":9221:9224   */\n      dup5\n        /* \"#utility.yul\":9217:9228   */\n      add\n        /* \"#utility.yul\":9210:9249   */\n      mstore\n        /* \"#utility.yul\":9182:9184   */\n      0x20\n        /* \"#utility.yul\":9179:9180   */\n      dup2\n        /* \"#utility.yul\":9175:9185   */\n      add\n        /* \"#utility.yul\":9170:9185   */\n      swap1\n      pop\n        /* \"#utility.yul\":9146:9259   */\n      jump(tag_222)\n    tag_224:\n        /* \"#utility.yul\":9277:9283   */\n      dup4\n        /* \"#utility.yul\":9274:9275   */\n      dup2\n        /* \"#utility.yul\":9271:9284   */\n      gt\n        /* \"#utility.yul\":9268:9369   */\n      iszero\n      tag_225\n      jumpi\n        /* \"#utility.yul\":9357:9358   */\n      0x00\n        /* \"#utility.yul\":9348:9354   */\n      dup5\n        /* \"#utility.yul\":9343:9346   */\n      dup5\n        /* \"#utility.yul\":9339:9355   */\n      add\n        /* \"#utility.yul\":9332:9359   */\n      mstore\n        /* \"#utility.yul\":9268:9369   */\n    tag_225:\n        /* \"#utility.yul\":9117:9375   */\n      pop\n        /* \"#utility.yul\":9068:9375   */\n      pop\n      pop\n      pop\n      jump\t// out\n        /* \"#utility.yul\":9381:9701   */\n    tag_55:\n        /* \"#utility.yul\":9425:9431   */\n      0x00\n        /* \"#utility.yul\":9462:9463   */\n      0x02\n        /* \"#utility.yul\":9456:9460   */\n      dup3\n        /* \"#utility.yul\":9452:9464   */\n      div\n        /* \"#utility.yul\":9442:9464   */\n      swap1\n      pop\n        /* \"#utility.yul\":9509:9510   */\n      0x01\n        /* \"#utility.yul\":9503:9507   */\n      dup3\n        /* \"#utility.yul\":9499:9511   */\n      and\n        /* \"#utility.yul\":9530:9548   */\n      dup1\n        /* \"#utility.yul\":9520:9601   */\n      tag_227\n      jumpi\n        /* \"#utility.yul\":9586:9590   */\n      0x7f\n        /* \"#utility.yul\":9578:9584   */\n      dup3\n        /* \"#utility.yul\":9574:9591   */\n      and\n        /* \"#utility.yul\":9564:9591   */\n      swap2\n      pop\n        /* \"#utility.yul\":9520:9601   */\n    tag_227:\n        /* \"#utility.yul\":9648:9650   */\n      0x20\n        /* \"#utility.yul\":9640:9646   */\n      dup3\n        /* \"#utility.yul\":9637:9651   */\n      lt\n        /* \"#utility.yul\":9617:9635   */\n      dup2\n        /* \"#utility.yul\":9614:9652   */\n      eq\n        /* \"#utility.yul\":9611:9695   */\n      iszero\n      tag_228\n      jumpi\n        /* \"#utility.yul\":9667:9685   */\n      tag_229\n      tag_230\n      jump\t// in\n    tag_229:\n        /* \"#utility.yul\":9611:9695   */\n    tag_228:\n        /* \"#utility.yul\":9432:9701   */\n      pop\n        /* \"#utility.yul\":9381:9701   */\n      swap2\n      swap1\n      pop\n      jump\t// out\n        /* \"#utility.yul\":9707:9988   */\n    tag_192:\n        /* \"#utility.yul\":9790:9817   */\n      tag_232\n        /* \"#utility.yul\":9812:9816   */\n      dup3\n        /* \"#utility.yul\":9790:9817   */\n      tag_149\n      jump\t// in\n    tag_232:\n        /* \"#utility.yul\":9782:9788   */\n      dup2\n        /* \"#utility.yul\":9778:9818   */\n      add\n        /* \"#utility.yul\":9920:9926   */\n      dup2\n        /* \"#utility.yul\":9908:9918   */\n      dup2\n        /* \"#utility.yul\":9905:9927   */\n      lt\n        /* \"#utility.yul\":9884:9902   */\n      0xffffffffffffffff\n        /* \"#utility.yul\":9872:9882   */\n      dup3\n        /* \"#utility.yul\":9869:9903   */\n      gt\n        /* \"#utility.yul\":9866:9928   */\n      or\n        /* \"#utility.yul\":9863:9951   */\n      iszero\n      tag_233\n      jumpi\n        /* \"#utility.yul\":9931:9949   */\n      tag_234\n      tag_197\n      jump\t// in\n    tag_234:\n        /* \"#utility.yul\":9863:9951   */\n    tag_233:\n        /* \"#utility.yul\":9971:9981   */\n      dup1\n        /* \"#utility.yul\":9967:9969   */\n      0x40\n        /* \"#utility.yul\":9960:9982   */\n      mstore\n        /* \"#utility.yul\":9750:9988   */\n      pop\n        /* \"#utility.yul\":9707:9988   */\n      pop\n      pop\n      jump\t// out\n        /* \"#utility.yul\":9994:10174   */\n    tag_206:\n        /* \"#utility.yul\":10042:10119   */\n      0x4e487b7100000000000000000000000000000000000000000000000000000000\n        /* \"#utility.yul\":10039:10040   */\n      0x00\n        /* \"#utility.yul\":10032:10120   */\n      mstore\n        /* \"#utility.yul\":10139:10143   */\n      0x11\n        /* \"#utility.yul\":10136:10137   */\n      0x04\n        /* \"#utility.yul\":10129:10144   */\n      mstore\n        /* \"#utility.yul\":10163:10167   */\n      0x24\n        /* \"#utility.yul\":10160:10161   */\n      0x00\n        /* \"#utility.yul\":10153:10168   */\n      revert\n        /* \"#utility.yul\":10180:10360   */\n    tag_230:\n        /* \"#utility.yul\":10228:10305   */\n      0x4e487b7100000000000000000000000000000000000000000000000000000000\n        /* \"#utility.yul\":10225:10226   */\n      0x00\n        /* \"#utility.yul\":10218:10306   */\n      mstore\n        /* \"#utility.yul\":10325:10329   */\n      0x22\n        /* \"#utility.yul\":10322:10323   */\n      0x04\n        /* \"#utility.yul\":10315:10330   */\n      mstore\n        /* \"#utility.yul\":10349:10353   */\n      0x24\n        /* \"#utility.yul\":10346:10347   */\n      0x00\n        /* \"#utility.yul\":10339:10354   */\n      revert\n        /* \"#utility.yul\":10366:10546   */\n    tag_197:\n        /* \"#utility.yul\":10414:10491   */\n      0x4e487b7100000000000000000000000000000000000000000000000000000000\n        /* \"#utility.yul\":10411:10412   */\n      0x00\n        /* \"#utility.yul\":10404:10492   */\n      mstore\n        /* \"#utility.yul\":10511:10515   */\n      0x41\n        /* \"#utility.yul\":10508:10509   */\n      0x04\n        /* \"#utility.yul\":10501:10516   */\n      mstore\n        /* \"#utility.yul\":10535:10539   */\n      0x24\n        /* \"#utility.yul\":10532:10533   */\n      0x00\n        /* \"#utility.yul\":10525:10540   */\n      revert\n        /* \"#utility.yul\":10552:10669   */\n    tag_113:\n        /* \"#utility.yul\":10661:10662   */\n      0x00\n        /* \"#utility.yul\":10658:10659   */\n      dup1\n        /* \"#utility.yul\":10651:10663   */\n      revert\n        /* \"#utility.yul\":10675:10792   */\n    tag_98:\n        /* \"#utility.yul\":10784:10785   */\n      0x00\n        /* \"#utility.yul\":10781:10782   */\n      dup1\n        /* \"#utility.yul\":10774:10786   */\n      revert\n        /* \"#utility.yul\":10798:10915   */\n    tag_134:\n        /* \"#utility.yul\":10907:10908   */\n      0x00\n        /* \"#utility.yul\":10904:10905   */\n      dup1\n        /* \"#utility.yul\":10897:10909   */\n      revert\n        /* \"#utility.yul\":10921:11038   */\n    tag_122:\n        /* \"#utility.yul\":11030:11031   */\n      0x00\n        /* \"#utility.yul\":11027:11028   */\n      dup1\n        /* \"#utility.yul\":11020:11032   */\n      revert\n        /* \"#utility.yul\":11044:11146   */\n    tag_149:\n        /* \"#utility.yul\":11085:11091   */\n      0x00\n        /* \"#utility.yul\":11136:11138   */\n      0x1f\n        /* \"#utility.yul\":11132:11139   */\n      not\n        /* \"#utility.yul\":11127:11129   */\n      0x1f\n        /* \"#utility.yul\":11120:11125   */\n      dup4\n        /* \"#utility.yul\":11116:11130   */\n      add\n        /* \"#utility.yul\":11112:11140   */\n      and\n        /* \"#utility.yul\":11102:11140   */\n      swap1\n      pop\n        /* \"#utility.yul\":11044:11146   */\n      swap2\n      swap1\n      pop\n      jump\t// out\n        /* \"#utility.yul\":11152:11376   */\n    tag_154:\n        /* \"#utility.yul\":11292:11326   */\n      0x596f75206861766520696e7375666669656e742066756e647320746f20776974\n        /* \"#utility.yul\":11288:11289   */\n      0x00\n        /* \"#utility.yul\":11280:11286   */\n      dup3\n        /* \"#utility.yul\":11276:11290   */\n      add\n        /* \"#utility.yul\":11269:11327   */\n      mstore\n        /* \"#utility.yul\":11361:11368   */\n      0x6864726177000000000000000000000000000000000000000000000000000000\n        /* \"#utility.yul\":11356:11358   */\n      0x20\n        /* \"#utility.yul\":11348:11354   */\n      dup3\n        /* \"#utility.yul\":11344:11359   */\n      add\n        /* \"#utility.yul\":11337:11369   */\n      mstore\n        /* \"#utility.yul\":11152:11376   */\n      pop\n      jump\t// out\n        /* \"#utility.yul\":11382:11610   */\n    tag_159:\n        /* \"#utility.yul\":11522:11556   */\n      0x596f75206e65656420746f206465706f73697420736f6d6520616d6f756e7420\n        /* \"#utility.yul\":11518:11519   */\n      0x00\n        /* \"#utility.yul\":11510:11516   */\n      dup3\n        /* \"#utility.yul\":11506:11520   */\n      add\n        /* \"#utility.yul\":11499:11557   */\n      mstore\n        /* \"#utility.yul\":11591:11602   */\n      0x6f66206d6f6e6579210000000000000000000000000000000000000000000000\n        /* \"#utility.yul\":11586:11588   */\n      0x20\n        /* \"#utility.yul\":11578:11584   */\n      dup3\n        /* \"#utility.yul\":11574:11589   */\n      add\n        /* \"#utility.yul\":11567:11603   */\n      mstore\n        /* \"#utility.yul\":11382:11610   */\n      pop\n      jump\t// out\n        /* \"#utility.yul\":11616:11852   */\n    tag_164:\n        /* \"#utility.yul\":11756:11790   */\n      0x596f75206d75737420626520746865206f776e657220746f2073657420746865\n        /* \"#utility.yul\":11752:11753   */\n      0x00\n        /* \"#utility.yul\":11744:11750   */\n      dup3\n        /* \"#utility.yul\":11740:11754   */\n      add\n        /* \"#utility.yul\":11733:11791   */\n      mstore\n        /* \"#utility.yul\":11825:11844   */\n      0x206e616d65206f66207468652062616e6b000000000000000000000000000000\n        /* \"#utility.yul\":11820:11822   */\n      0x20\n        /* \"#utility.yul\":11812:11818   */\n      dup3\n        /* \"#utility.yul\":11808:11823   */\n      add\n        /* \"#utility.yul\":11801:11845   */\n      mstore\n        /* \"#utility.yul\":11616:11852   */\n      pop\n      jump\t// out\n        /* \"#utility.yul\":11858:12099   */\n    tag_169:\n        /* \"#utility.yul\":11998:12032   */\n      0x596f75206d75737420626520746865206f776e6572206f66207468652062616e\n        /* \"#utility.yul\":11994:11995   */\n      0x00\n        /* \"#utility.yul\":11986:11992   */\n      dup3\n        /* \"#utility.yul\":11982:11996   */\n      add\n        /* \"#utility.yul\":11975:12033   */\n      mstore\n        /* \"#utility.yul\":12067:12091   */\n      0x6b20746f2073656520616c6c2062616c616e6365732e00000000000000000000\n        /* \"#utility.yul\":12062:12064   */\n      0x20\n        /* \"#utility.yul\":12054:12060   */\n      dup3\n        /* \"#utility.yul\":12050:12065   */\n      add\n        /* \"#utility.yul\":12043:12092   */\n      mstore\n        /* \"#utility.yul\":11858:12099   */\n      pop\n      jump\t// out\n        /* \"#utility.yul\":12105:12227   */\n    tag_104:\n        /* \"#utility.yul\":12178:12202   */\n      tag_248\n        /* \"#utility.yul\":12196:12201   */\n      dup2\n        /* \"#utility.yul\":12178:12202   */\n      tag_139\n      jump\t// in\n    tag_248:\n        /* \"#utility.yul\":12171:12176   */\n      dup2\n        /* \"#utility.yul\":12168:12203   */\n      eq\n        /* \"#utility.yul\":12158:12221   */\n      tag_249\n      jumpi\n        /* \"#utility.yul\":12217:12218   */\n      0x00\n        /* \"#utility.yul\":12214:12215   */\n      dup1\n        /* \"#utility.yul\":12207:12219   */\n      revert\n        /* \"#utility.yul\":12158:12221   */\n    tag_249:\n        /* \"#utility.yul\":12105:12227   */\n      pop\n      jump\t// out\n        /* \"#utility.yul\":12233:12371   */\n    tag_108:\n        /* \"#utility.yul\":12314:12346   */\n      tag_251\n        /* \"#utility.yul\":12340:12345   */\n      dup2\n        /* \"#utility.yul\":12314:12346   */\n      tag_215\n      jump\t// in\n    tag_251:\n        /* \"#utility.yul\":12307:12312   */\n      dup2\n        /* \"#utility.yul\":12304:12347   */\n      eq\n        /* \"#utility.yul\":12294:12365   */\n      tag_252\n      jumpi\n        /* \"#utility.yul\":12361:12362   */\n      0x00\n        /* \"#utility.yul\":12358:12359   */\n      dup1\n        /* \"#utility.yul\":12351:12363   */\n      revert\n        /* \"#utility.yul\":12294:12365   */\n    tag_252:\n        /* \"#utility.yul\":12233:12371   */\n      pop\n      jump\t// out\n        /* \"#utility.yul\":12377:12499   */\n    tag_118:\n        /* \"#utility.yul\":12450:12474   */\n      tag_254\n        /* \"#utility.yul\":12468:12473   */\n      dup2\n        /* \"#utility.yul\":12450:12474   */\n      tag_173\n      jump\t// in\n    tag_254:\n        /* \"#utility.yul\":12443:12448   */\n      dup2\n        /* \"#utility.yul\":12440:12475   */\n      eq\n        /* \"#utility.yul\":12430:12493   */\n      tag_255\n      jumpi\n        /* \"#utility.yul\":12489:12490   */\n      0x00\n        /* \"#utility.yul\":12486:12487   */\n      dup1\n        /* \"#utility.yul\":12479:12491   */\n      revert\n        /* \"#utility.yul\":12430:12493   */\n    tag_255:\n        /* \"#utility.yul\":12377:12499   */\n      pop\n      jump\t// out\n\n    auxdata: 0xa264697066735822122022b64cbfb3c8b909b58daef20af1df398d0080544749b8e382b5a292a888a8b064736f6c63430008070033\n}\n",
				"bytecode": {
					"linkReferences": {},
					"object": "608060405234801561001057600080fd5b50336000806101000a81548173ffffffffffffffffffffffffffffffffffffffff021916908373ffffffffffffffffffffffffffffffffffffffff160217905550610def806100606000396000f3fe60806040526004361061007b5760003560e01c80637b83b50b1161004e5780637b83b50b1461011b578063a853409a14610146578063e147aaa714610171578063f274c8971461019c5761007b565b806316c05aa21461008057806327d358011461008a57806337ebe47b146100b557806370142690146100f2575b600080fd5b6100886101c5565b005b34801561009657600080fd5b5061009f610261565b6040516100ac91906108da565b60405180910390f35b3480156100c157600080fd5b506100dc60048036038101906100d79190610726565b6102ef565b6040516100e9919061097c565b60405180910390f35b3480156100fe57600080fd5b5061011960048036038101906101149190610793565b610307565b005b34801561012757600080fd5b506101306103af565b60405161013d919061097c565b60405180910390f35b34801561015257600080fd5b5061015b610446565b604051610168919061097c565b60405180910390f35b34801561017d57600080fd5b5061018661048d565b60405161019391906108bf565b60405180910390f35b3480156101a857600080fd5b506101c360048036038101906101be9190610753565b6104b1565b005b6000341415610209576040517f08c379a00000000000000000000000000000000000000000000000000000000081526004016102009061091c565b60405180910390fd5b34600260003373ffffffffffffffffffffffffffffffffffffffff1673ffffffffffffffffffffffffffffffffffffffff16815260200190815260200160002060008282546102589190610a09565b92505081905550565b6001805461026e90610b23565b80601f016020809104026020016040519081016040528092919081815260200182805461029a90610b23565b80156102e75780601f106102bc576101008083540402835291602001916102e7565b820191906000526020600020905b8154815290600101906020018083116102ca57829003601f168201915b505050505081565b60026020528060005260406000206000915090505481565b60008054906101000a900473ffffffffffffffffffffffffffffffffffffffff1673ffffffffffffffffffffffffffffffffffffffff163373ffffffffffffffffffffffffffffffffffffffff1614610395576040517f08c379a000000000000000000000000000000000000000000000000000000000815260040161038c9061093c565b60405180910390fd5b80600190805190602001906103ab9291906105d4565b5050565b60008060009054906101000a900473ffffffffffffffffffffffffffffffffffffffff1673ffffffffffffffffffffffffffffffffffffffff163373ffffffffffffffffffffffffffffffffffffffff1614610440576040517f08c379a00000000000000000000000000000000000000000000000000000000081526004016104379061095c565b60405180910390fd5b47905090565b6000600260003373ffffffffffffffffffffffffffffffffffffffff1673ffffffffffffffffffffffffffffffffffffffff16815260200190815260200160002054905090565b60008054906101000a900473ffffffffffffffffffffffffffffffffffffffff1681565b600260003373ffffffffffffffffffffffffffffffffffffffff1673ffffffffffffffffffffffffffffffffffffffff16815260200190815260200160002054811115610533576040517f08c379a000000000000000000000000000000000000000000000000000000000815260040161052a906108fc565b60405180910390fd5b80600260003373ffffffffffffffffffffffffffffffffffffffff1673ffffffffffffffffffffffffffffffffffffffff16815260200190815260200160002060008282546105829190610a5f565b925050819055508173ffffffffffffffffffffffffffffffffffffffff166108fc829081150290604051600060405180830381858888f193505050501580156105cf573d6000803e3d6000fd5b505050565b8280546105e090610b23565b90600052602060002090601f0160209004810192826106025760008555610649565b82601f1061061b57805160ff1916838001178555610649565b82800160010185558215610649579182015b8281111561064857825182559160200191906001019061062d565b5b509050610656919061065a565b5090565b5b8082111561067357600081600090555060010161065b565b5090565b600061068a610685846109bc565b610997565b9050828152602081018484840111156106a6576106a5610c18565b5b6106b1848285610ae1565b509392505050565b6000813590506106c881610d74565b92915050565b6000813590506106dd81610d8b565b92915050565b600082601f8301126106f8576106f7610c13565b5b8135610708848260208601610677565b91505092915050565b60008135905061072081610da2565b92915050565b60006020828403121561073c5761073b610c22565b5b600061074a848285016106b9565b91505092915050565b6000806040838503121561076a57610769610c22565b5b6000610778858286016106ce565b925050602061078985828601610711565b9150509250929050565b6000602082840312156107a9576107a8610c22565b5b600082013567ffffffffffffffff8111156107c7576107c6610c1d565b5b6107d3848285016106e3565b91505092915050565b6107e581610a93565b82525050565b60006107f6826109ed565b61080081856109f8565b9350610810818560208601610af0565b61081981610c27565b840191505092915050565b60006108316025836109f8565b915061083c82610c38565b604082019050919050565b60006108546029836109f8565b915061085f82610c87565b604082019050919050565b60006108776031836109f8565b915061088282610cd6565b604082019050919050565b600061089a6036836109f8565b91506108a582610d25565b604082019050919050565b6108b981610ad7565b82525050565b60006020820190506108d460008301846107dc565b92915050565b600060208201905081810360008301526108f481846107eb565b905092915050565b6000602082019050818103600083015261091581610824565b9050919050565b6000602082019050818103600083015261093581610847565b9050919050565b600060208201905081810360008301526109558161086a565b9050919050565b600060208201905081810360008301526109758161088d565b9050919050565b600060208201905061099160008301846108b0565b92915050565b60006109a16109b2565b90506109ad8282610b55565b919050565b6000604051905090565b600067ffffffffffffffff8211156109d7576109d6610be4565b5b6109e082610c27565b9050602081019050919050565b600081519050919050565b600082825260208201905092915050565b6000610a1482610ad7565b9150610a1f83610ad7565b9250827fffffffffffffffffffffffffffffffffffffffffffffffffffffffffffffffff03821115610a5457610a53610b86565b5b828201905092915050565b6000610a6a82610ad7565b9150610a7583610ad7565b925082821015610a8857610a87610b86565b5b828203905092915050565b6000610a9e82610ab7565b9050919050565b6000610ab082610ab7565b9050919050565b600073ffffffffffffffffffffffffffffffffffffffff82169050919050565b6000819050919050565b82818337600083830152505050565b60005b83811015610b0e578082015181840152602081019050610af3565b83811115610b1d576000848401525b50505050565b60006002820490506001821680610b3b57607f821691505b60208210811415610b4f57610b4e610bb5565b5b50919050565b610b5e82610c27565b810181811067ffffffffffffffff82111715610b7d57610b7c610be4565b5b80604052505050565b7f4e487b7100000000000000000000000000000000000000000000000000000000600052601160045260246000fd5b7f4e487b7100000000000000000000000000000000000000000000000000000000600052602260045260246000fd5b7f4e487b7100000000000000000000000000000000000000000000000000000000600052604160045260246000fd5b600080fd5b600080fd5b600080fd5b600080fd5b6000601f19601f8301169050919050565b7f596f75206861766520696e7375666669656e742066756e647320746f2077697460008201527f6864726177000000000000000000000000000000000000000000000000000000602082015250565b7f596f75206e65656420746f206465706f73697420736f6d6520616d6f756e742060008201527f6f66206d6f6e6579210000000000000000000000000000000000000000000000602082015250565b7f596f75206d75737420626520746865206f776e657220746f207365742074686560008201527f206e616d65206f66207468652062616e6b000000000000000000000000000000602082015250565b7f596f75206d75737420626520746865206f776e6572206f66207468652062616e60008201527f6b20746f2073656520616c6c2062616c616e6365732e00000000000000000000602082015250565b610d7d81610a93565b8114610d8857600080fd5b50565b610d9481610aa5565b8114610d9f57600080fd5b50565b610dab81610ad7565b8114610db657600080fd5b5056fea264697066735822122022b64cbfb3c8b909b58daef20af1df398d0080544749b8e382b5a292a888a8b064736f6c63430008070033",
					"opcodes": "PUSH1 0x80 PUSH1 0x40 MSTORE CALLVALUE DUP1 ISZERO PUSH2 0x10 JUMPI PUSH1 0x0 DUP1 REVERT JUMPDEST POP CALLER PUSH1 0x0 DUP1 PUSH2 0x100 EXP DUP2 SLOAD DUP2 PUSH20 0xFFFFFFFFFFFFFFFFFFFFFFFFFFFFFFFFFFFFFFFF MUL NOT AND SWAP1 DUP4 PUSH20 0xFFFFFFFFFFFFFFFFFFFFFFFFFFFFFFFFFFFFFFFF AND MUL OR SWAP1 SSTORE POP PUSH2 0xDEF DUP1 PUSH2 0x60 PUSH1 0x0 CODECOPY PUSH1 0x0 RETURN INVALID PUSH1 0x80 PUSH1 0x40 MSTORE PUSH1 0x4 CALLDATASIZE LT PUSH2 0x7B JUMPI PUSH1 0x0 CALLDATALOAD PUSH1 0xE0 SHR DUP1 PUSH4 0x7B83B50B GT PUSH2 0x4E JUMPI DUP1 PUSH4 0x7B83B50B EQ PUSH2 0x11B JUMPI DUP1 PUSH4 0xA853409A EQ PUSH2 0x146 JUMPI DUP1 PUSH4 0xE147AAA7 EQ PUSH2 0x171 JUMPI DUP1 PUSH4 0xF274C897 EQ PUSH2 0x19C JUMPI PUSH2 0x7B JUMP JUMPDEST DUP1 PUSH4 0x16C05AA2 EQ PUSH2 0x80 JUMPI DUP1 PUSH4 0x27D35801 EQ PUSH2 0x8A JUMPI DUP1 PUSH4 0x37EBE47B EQ PUSH2 0xB5 JUMPI DUP1 PUSH4 0x70142690 EQ PUSH2 0xF2 JUMPI JUMPDEST PUSH1 0x0 DUP1 REVERT JUMPDEST PUSH2 0x88 PUSH2 0x1C5 JUMP JUMPDEST STOP JUMPDEST CALLVALUE DUP1 ISZERO PUSH2 0x96 JUMPI PUSH1 0x0 DUP1 REVERT JUMPDEST POP PUSH2 0x9F PUSH2 0x261 JUMP JUMPDEST PUSH1 0x40 MLOAD PUSH2 0xAC SWAP2 SWAP1 PUSH2 0x8DA JUMP JUMPDEST PUSH1 0x40 MLOAD DUP1 SWAP2 SUB SWAP1 RETURN JUMPDEST CALLVALUE DUP1 ISZERO PUSH2 0xC1 JUMPI PUSH1 0x0 DUP1 REVERT JUMPDEST POP PUSH2 0xDC PUSH1 0x4 DUP1 CALLDATASIZE SUB DUP2 ADD SWAP1 PUSH2 0xD7 SWAP2 SWAP1 PUSH2 0x726 JUMP JUMPDEST PUSH2 0x2EF JUMP JUMPDEST PUSH1 0x40 MLOAD PUSH2 0xE9 SWAP2 SWAP1 PUSH2 0x97C JUMP JUMPDEST PUSH1 0x40 MLOAD DUP1 SWAP2 SUB SWAP1 RETURN JUMPDEST CALLVALUE DUP1 ISZERO PUSH2 0xFE JUMPI PUSH1 0x0 DUP1 REVERT JUMPDEST POP PUSH2 0x119 PUSH1 0x4 DUP1 CALLDATASIZE SUB DUP2 ADD SWAP1 PUSH2 0x114 SWAP2 SWAP1 PUSH2 0x793 JUMP JUMPDEST PUSH2 0x307 JUMP JUMPDEST STOP JUMPDEST CALLVALUE DUP1 ISZERO PUSH2 0x127 JUMPI PUSH1 0x0 DUP1 REVERT JUMPDEST POP PUSH2 0x130 PUSH2 0x3AF JUMP JUMPDEST PUSH1 0x40 MLOAD PUSH2 0x13D SWAP2 SWAP1 PUSH2 0x97C JUMP JUMPDEST PUSH1 0x40 MLOAD DUP1 SWAP2 SUB SWAP1 RETURN JUMPDEST CALLVALUE DUP1 ISZERO PUSH2 0x152 JUMPI PUSH1 0x0 DUP1 REVERT JUMPDEST POP PUSH2 0x15B PUSH2 0x446 JUMP JUMPDEST PUSH1 0x40 MLOAD PUSH2 0x168 SWAP2 SWAP1 PUSH2 0x97C JUMP JUMPDEST PUSH1 0x40 MLOAD DUP1 SWAP2 SUB SWAP1 RETURN JUMPDEST CALLVALUE DUP1 ISZERO PUSH2 0x17D JUMPI PUSH1 0x0 DUP1 REVERT JUMPDEST POP PUSH2 0x186 PUSH2 0x48D JUMP JUMPDEST PUSH1 0x40 MLOAD PUSH2 0x193 SWAP2 SWAP1 PUSH2 0x8BF JUMP JUMPDEST PUSH1 0x40 MLOAD DUP1 SWAP2 SUB SWAP1 RETURN JUMPDEST CALLVALUE DUP1 ISZERO PUSH2 0x1A8 JUMPI PUSH1 0x0 DUP1 REVERT JUMPDEST POP PUSH2 0x1C3 PUSH1 0x4 DUP1 CALLDATASIZE SUB DUP2 ADD SWAP1 PUSH2 0x1BE SWAP2 SWAP1 PUSH2 0x753 JUMP JUMPDEST PUSH2 0x4B1 JUMP JUMPDEST STOP JUMPDEST PUSH1 0x0 CALLVALUE EQ ISZERO PUSH2 0x209 JUMPI PUSH1 0x40 MLOAD PUSH32 0x8C379A000000000000000000000000000000000000000000000000000000000 DUP2 MSTORE PUSH1 0x4 ADD PUSH2 0x200 SWAP1 PUSH2 0x91C JUMP JUMPDEST PUSH1 0x40 MLOAD DUP1 SWAP2 SUB SWAP1 REVERT JUMPDEST CALLVALUE PUSH1 0x2 PUSH1 0x0 CALLER PUSH20 0xFFFFFFFFFFFFFFFFFFFFFFFFFFFFFFFFFFFFFFFF AND PUSH20 0xFFFFFFFFFFFFFFFFFFFFFFFFFFFFFFFFFFFFFFFF AND DUP2 MSTORE PUSH1 0x20 ADD SWAP1 DUP2 MSTORE PUSH1 0x20 ADD PUSH1 0x0 KECCAK256 PUSH1 0x0 DUP3 DUP3 SLOAD PUSH2 0x258 SWAP2 SWAP1 PUSH2 0xA09 JUMP JUMPDEST SWAP3 POP POP DUP2 SWAP1 SSTORE POP JUMP JUMPDEST PUSH1 0x1 DUP1 SLOAD PUSH2 0x26E SWAP1 PUSH2 0xB23 JUMP JUMPDEST DUP1 PUSH1 0x1F ADD PUSH1 0x20 DUP1 SWAP2 DIV MUL PUSH1 0x20 ADD PUSH1 0x40 MLOAD SWAP1 DUP2 ADD PUSH1 0x40 MSTORE DUP1 SWAP3 SWAP2 SWAP1 DUP2 DUP2 MSTORE PUSH1 0x20 ADD DUP3 DUP1 SLOAD PUSH2 0x29A SWAP1 PUSH2 0xB23 JUMP JUMPDEST DUP1 ISZERO PUSH2 0x2E7 JUMPI DUP1 PUSH1 0x1F LT PUSH2 0x2BC JUMPI PUSH2 0x100 DUP1 DUP4 SLOAD DIV MUL DUP4 MSTORE SWAP2 PUSH1 0x20 ADD SWAP2 PUSH2 0x2E7 JUMP JUMPDEST DUP3 ADD SWAP2 SWAP1 PUSH1 0x0 MSTORE PUSH1 0x20 PUSH1 0x0 KECCAK256 SWAP1 JUMPDEST DUP2 SLOAD DUP2 MSTORE SWAP1 PUSH1 0x1 ADD SWAP1 PUSH1 0x20 ADD DUP1 DUP4 GT PUSH2 0x2CA JUMPI DUP3 SWAP1 SUB PUSH1 0x1F AND DUP3 ADD SWAP2 JUMPDEST POP POP POP POP POP DUP2 JUMP JUMPDEST PUSH1 0x2 PUSH1 0x20 MSTORE DUP1 PUSH1 0x0 MSTORE PUSH1 0x40 PUSH1 0x0 KECCAK256 PUSH1 0x0 SWAP2 POP SWAP1 POP SLOAD DUP2 JUMP JUMPDEST PUSH1 0x0 DUP1 SLOAD SWAP1 PUSH2 0x100 EXP SWAP1 DIV PUSH20 0xFFFFFFFFFFFFFFFFFFFFFFFFFFFFFFFFFFFFFFFF AND PUSH20 0xFFFFFFFFFFFFFFFFFFFFFFFFFFFFFFFFFFFFFFFF AND CALLER PUSH20 0xFFFFFFFFFFFFFFFFFFFFFFFFFFFFFFFFFFFFFFFF AND EQ PUSH2 0x395 JUMPI PUSH1 0x40 MLOAD PUSH32 0x8C379A000000000000000000000000000000000000000000000000000000000 DUP2 MSTORE PUSH1 0x4 ADD PUSH2 0x38C SWAP1 PUSH2 0x93C JUMP JUMPDEST PUSH1 0x40 MLOAD DUP1 SWAP2 SUB SWAP1 REVERT JUMPDEST DUP1 PUSH1 0x1 SWAP1 DUP1 MLOAD SWAP1 PUSH1 0x20 ADD SWAP1 PUSH2 0x3AB SWAP3 SWAP2 SWAP1 PUSH2 0x5D4 JUMP JUMPDEST POP POP JUMP JUMPDEST PUSH1 0x0 DUP1 PUSH1 0x0 SWAP1 SLOAD SWAP1 PUSH2 0x100 EXP SWAP1 DIV PUSH20 0xFFFFFFFFFFFFFFFFFFFFFFFFFFFFFFFFFFFFFFFF AND PUSH20 0xFFFFFFFFFFFFFFFFFFFFFFFFFFFFFFFFFFFFFFFF AND CALLER PUSH20 0xFFFFFFFFFFFFFFFFFFFFFFFFFFFFFFFFFFFFFFFF AND EQ PUSH2 0x440 JUMPI PUSH1 0x40 MLOAD PUSH32 0x8C379A000000000000000000000000000000000000000000000000000000000 DUP2 MSTORE PUSH1 0x4 ADD PUSH2 0x437 SWAP1 PUSH2 0x95C JUMP JUMPDEST PUSH1 0x40 MLOAD DUP1 SWAP2 SUB SWAP1 REVERT JUMPDEST SELFBALANCE SWAP1 POP SWAP1 JUMP JUMPDEST PUSH1 0x0 PUSH1 0x2 PUSH1 0x0 CALLER PUSH20 0xFFFFFFFFFFFFFFFFFFFFFFFFFFFFFFFFFFFFFFFF AND PUSH20 0xFFFFFFFFFFFFFFFFFFFFFFFFFFFFFFFFFFFFFFFF AND DUP2 MSTORE PUSH1 0x20 ADD SWAP1 DUP2 MSTORE PUSH1 0x20 ADD PUSH1 0x0 KECCAK256 SLOAD SWAP1 POP SWAP1 JUMP JUMPDEST PUSH1 0x0 DUP1 SLOAD SWAP1 PUSH2 0x100 EXP SWAP1 DIV PUSH20 0xFFFFFFFFFFFFFFFFFFFFFFFFFFFFFFFFFFFFFFFF AND DUP2 JUMP JUMPDEST PUSH1 0x2 PUSH1 0x0 CALLER PUSH20 0xFFFFFFFFFFFFFFFFFFFFFFFFFFFFFFFFFFFFFFFF AND PUSH20 0xFFFFFFFFFFFFFFFFFFFFFFFFFFFFFFFFFFFFFFFF AND DUP2 MSTORE PUSH1 0x20 ADD SWAP1 DUP2 MSTORE PUSH1 0x20 ADD PUSH1 0x0 KECCAK256 SLOAD DUP2 GT ISZERO PUSH2 0x533 JUMPI PUSH1 0x40 MLOAD PUSH32 0x8C379A000000000000000000000000000000000000000000000000000000000 DUP2 MSTORE PUSH1 0x4 ADD PUSH2 0x52A SWAP1 PUSH2 0x8FC JUMP JUMPDEST PUSH1 0x40 MLOAD DUP1 SWAP2 SUB SWAP1 REVERT JUMPDEST DUP1 PUSH1 0x2 PUSH1 0x0 CALLER PUSH20 0xFFFFFFFFFFFFFFFFFFFFFFFFFFFFFFFFFFFFFFFF AND PUSH20 0xFFFFFFFFFFFFFFFFFFFFFFFFFFFFFFFFFFFFFFFF AND DUP2 MSTORE PUSH1 0x20 ADD SWAP1 DUP2 MSTORE PUSH1 0x20 ADD PUSH1 0x0 KECCAK256 PUSH1 0x0 DUP3 DUP3 SLOAD PUSH2 0x582 SWAP2 SWAP1 PUSH2 0xA5F JUMP JUMPDEST SWAP3 POP POP DUP2 SWAP1 SSTORE POP DUP2 PUSH20 0xFFFFFFFFFFFFFFFFFFFFFFFFFFFFFFFFFFFFFFFF AND PUSH2 0x8FC DUP3 SWAP1 DUP2 ISZERO MUL SWAP1 PUSH1 0x40 MLOAD PUSH1 0x0 PUSH1 0x40 MLOAD DUP1 DUP4 SUB DUP2 DUP6 DUP9 DUP9 CALL SWAP4 POP POP POP POP ISZERO DUP1 ISZERO PUSH2 0x5CF JUMPI RETURNDATASIZE PUSH1 0x0 DUP1 RETURNDATACOPY RETURNDATASIZE PUSH1 0x0 REVERT JUMPDEST POP POP POP JUMP JUMPDEST DUP3 DUP1 SLOAD PUSH2 0x5E0 SWAP1 PUSH2 0xB23 JUMP JUMPDEST SWAP1 PUSH1 0x0 MSTORE PUSH1 0x20 PUSH1 0x0 KECCAK256 SWAP1 PUSH1 0x1F ADD PUSH1 0x20 SWAP1 DIV DUP2 ADD SWAP3 DUP3 PUSH2 0x602 JUMPI PUSH1 0x0 DUP6 SSTORE PUSH2 0x649 JUMP JUMPDEST DUP3 PUSH1 0x1F LT PUSH2 0x61B JUMPI DUP1 MLOAD PUSH1 0xFF NOT AND DUP4 DUP1 ADD OR DUP6 SSTORE PUSH2 0x649 JUMP JUMPDEST DUP3 DUP1 ADD PUSH1 0x1 ADD DUP6 SSTORE DUP3 ISZERO PUSH2 0x649 JUMPI SWAP2 DUP3 ADD JUMPDEST DUP3 DUP2 GT ISZERO PUSH2 0x648 JUMPI DUP3 MLOAD DUP3 SSTORE SWAP2 PUSH1 0x20 ADD SWAP2 SWAP1 PUSH1 0x1 ADD SWAP1 PUSH2 0x62D JUMP JUMPDEST JUMPDEST POP SWAP1 POP PUSH2 0x656 SWAP2 SWAP1 PUSH2 0x65A JUMP JUMPDEST POP SWAP1 JUMP JUMPDEST JUMPDEST DUP1 DUP3 GT ISZERO PUSH2 0x673 JUMPI PUSH1 0x0 DUP2 PUSH1 0x0 SWAP1 SSTORE POP PUSH1 0x1 ADD PUSH2 0x65B JUMP JUMPDEST POP SWAP1 JUMP JUMPDEST PUSH1 0x0 PUSH2 0x68A PUSH2 0x685 DUP5 PUSH2 0x9BC JUMP JUMPDEST PUSH2 0x997 JUMP JUMPDEST SWAP1 POP DUP3 DUP2 MSTORE PUSH1 0x20 DUP2 ADD DUP5 DUP5 DUP5 ADD GT ISZERO PUSH2 0x6A6 JUMPI PUSH2 0x6A5 PUSH2 0xC18 JUMP JUMPDEST JUMPDEST PUSH2 0x6B1 DUP5 DUP3 DUP6 PUSH2 0xAE1 JUMP JUMPDEST POP SWAP4 SWAP3 POP POP POP JUMP JUMPDEST PUSH1 0x0 DUP2 CALLDATALOAD SWAP1 POP PUSH2 0x6C8 DUP2 PUSH2 0xD74 JUMP JUMPDEST SWAP3 SWAP2 POP POP JUMP JUMPDEST PUSH1 0x0 DUP2 CALLDATALOAD SWAP1 POP PUSH2 0x6DD DUP2 PUSH2 0xD8B JUMP JUMPDEST SWAP3 SWAP2 POP POP JUMP JUMPDEST PUSH1 0x0 DUP3 PUSH1 0x1F DUP4 ADD SLT PUSH2 0x6F8 JUMPI PUSH2 0x6F7 PUSH2 0xC13 JUMP JUMPDEST JUMPDEST DUP2 CALLDATALOAD PUSH2 0x708 DUP5 DUP3 PUSH1 0x20 DUP7 ADD PUSH2 0x677 JUMP JUMPDEST SWAP2 POP POP SWAP3 SWAP2 POP POP JUMP JUMPDEST PUSH1 0x0 DUP2 CALLDATALOAD SWAP1 POP PUSH2 0x720 DUP2 PUSH2 0xDA2 JUMP JUMPDEST SWAP3 SWAP2 POP POP JUMP JUMPDEST PUSH1 0x0 PUSH1 0x20 DUP3 DUP5 SUB SLT ISZERO PUSH2 0x73C JUMPI PUSH2 0x73B PUSH2 0xC22 JUMP JUMPDEST JUMPDEST PUSH1 0x0 PUSH2 0x74A DUP5 DUP3 DUP6 ADD PUSH2 0x6B9 JUMP JUMPDEST SWAP2 POP POP SWAP3 SWAP2 POP POP JUMP JUMPDEST PUSH1 0x0 DUP1 PUSH1 0x40 DUP4 DUP6 SUB SLT ISZERO PUSH2 0x76A JUMPI PUSH2 0x769 PUSH2 0xC22 JUMP JUMPDEST JUMPDEST PUSH1 0x0 PUSH2 0x778 DUP6 DUP3 DUP7 ADD PUSH2 0x6CE JUMP JUMPDEST SWAP3 POP POP PUSH1 0x20 PUSH2 0x789 DUP6 DUP3 DUP7 ADD PUSH2 0x711 JUMP JUMPDEST SWAP2 POP POP SWAP3 POP SWAP3 SWAP1 POP JUMP JUMPDEST PUSH1 0x0 PUSH1 0x20 DUP3 DUP5 SUB SLT ISZERO PUSH2 0x7A9 JUMPI PUSH2 0x7A8 PUSH2 0xC22 JUMP JUMPDEST JUMPDEST PUSH1 0x0 DUP3 ADD CALLDATALOAD PUSH8 0xFFFFFFFFFFFFFFFF DUP2 GT ISZERO PUSH2 0x7C7 JUMPI PUSH2 0x7C6 PUSH2 0xC1D JUMP JUMPDEST JUMPDEST PUSH2 0x7D3 DUP5 DUP3 DUP6 ADD PUSH2 0x6E3 JUMP JUMPDEST SWAP2 POP POP SWAP3 SWAP2 POP POP JUMP JUMPDEST PUSH2 0x7E5 DUP2 PUSH2 0xA93 JUMP JUMPDEST DUP3 MSTORE POP POP JUMP JUMPDEST PUSH1 0x0 PUSH2 0x7F6 DUP3 PUSH2 0x9ED JUMP JUMPDEST PUSH2 0x800 DUP2 DUP6 PUSH2 0x9F8 JUMP JUMPDEST SWAP4 POP PUSH2 0x810 DUP2 DUP6 PUSH1 0x20 DUP7 ADD PUSH2 0xAF0 JUMP JUMPDEST PUSH2 0x819 DUP2 PUSH2 0xC27 JUMP JUMPDEST DUP5 ADD SWAP2 POP POP SWAP3 SWAP2 POP POP JUMP JUMPDEST PUSH1 0x0 PUSH2 0x831 PUSH1 0x25 DUP4 PUSH2 0x9F8 JUMP JUMPDEST SWAP2 POP PUSH2 0x83C DUP3 PUSH2 0xC38 JUMP JUMPDEST PUSH1 0x40 DUP3 ADD SWAP1 POP SWAP2 SWAP1 POP JUMP JUMPDEST PUSH1 0x0 PUSH2 0x854 PUSH1 0x29 DUP4 PUSH2 0x9F8 JUMP JUMPDEST SWAP2 POP PUSH2 0x85F DUP3 PUSH2 0xC87 JUMP JUMPDEST PUSH1 0x40 DUP3 ADD SWAP1 POP SWAP2 SWAP1 POP JUMP JUMPDEST PUSH1 0x0 PUSH2 0x877 PUSH1 0x31 DUP4 PUSH2 0x9F8 JUMP JUMPDEST SWAP2 POP PUSH2 0x882 DUP3 PUSH2 0xCD6 JUMP JUMPDEST PUSH1 0x40 DUP3 ADD SWAP1 POP SWAP2 SWAP1 POP JUMP JUMPDEST PUSH1 0x0 PUSH2 0x89A PUSH1 0x36 DUP4 PUSH2 0x9F8 JUMP JUMPDEST SWAP2 POP PUSH2 0x8A5 DUP3 PUSH2 0xD25 JUMP JUMPDEST PUSH1 0x40 DUP3 ADD SWAP1 POP SWAP2 SWAP1 POP JUMP JUMPDEST PUSH2 0x8B9 DUP2 PUSH2 0xAD7 JUMP JUMPDEST DUP3 MSTORE POP POP JUMP JUMPDEST PUSH1 0x0 PUSH1 0x20 DUP3 ADD SWAP1 POP PUSH2 0x8D4 PUSH1 0x0 DUP4 ADD DUP5 PUSH2 0x7DC JUMP JUMPDEST SWAP3 SWAP2 POP POP JUMP JUMPDEST PUSH1 0x0 PUSH1 0x20 DUP3 ADD SWAP1 POP DUP2 DUP2 SUB PUSH1 0x0 DUP4 ADD MSTORE PUSH2 0x8F4 DUP2 DUP5 PUSH2 0x7EB JUMP JUMPDEST SWAP1 POP SWAP3 SWAP2 POP POP JUMP JUMPDEST PUSH1 0x0 PUSH1 0x20 DUP3 ADD SWAP1 POP DUP2 DUP2 SUB PUSH1 0x0 DUP4 ADD MSTORE PUSH2 0x915 DUP2 PUSH2 0x824 JUMP JUMPDEST SWAP1 POP SWAP2 SWAP1 POP JUMP JUMPDEST PUSH1 0x0 PUSH1 0x20 DUP3 ADD SWAP1 POP DUP2 DUP2 SUB PUSH1 0x0 DUP4 ADD MSTORE PUSH2 0x935 DUP2 PUSH2 0x847 JUMP JUMPDEST SWAP1 POP SWAP2 SWAP1 POP JUMP JUMPDEST PUSH1 0x0 PUSH1 0x20 DUP3 ADD SWAP1 POP DUP2 DUP2 SUB PUSH1 0x0 DUP4 ADD MSTORE PUSH2 0x955 DUP2 PUSH2 0x86A JUMP JUMPDEST SWAP1 POP SWAP2 SWAP1 POP JUMP JUMPDEST PUSH1 0x0 PUSH1 0x20 DUP3 ADD SWAP1 POP DUP2 DUP2 SUB PUSH1 0x0 DUP4 ADD MSTORE PUSH2 0x975 DUP2 PUSH2 0x88D JUMP JUMPDEST SWAP1 POP SWAP2 SWAP1 POP JUMP JUMPDEST PUSH1 0x0 PUSH1 0x20 DUP3 ADD SWAP1 POP PUSH2 0x991 PUSH1 0x0 DUP4 ADD DUP5 PUSH2 0x8B0 JUMP JUMPDEST SWAP3 SWAP2 POP POP JUMP JUMPDEST PUSH1 0x0 PUSH2 0x9A1 PUSH2 0x9B2 JUMP JUMPDEST SWAP1 POP PUSH2 0x9AD DUP3 DUP3 PUSH2 0xB55 JUMP JUMPDEST SWAP2 SWAP1 POP JUMP JUMPDEST PUSH1 0x0 PUSH1 0x40 MLOAD SWAP1 POP SWAP1 JUMP JUMPDEST PUSH1 0x0 PUSH8 0xFFFFFFFFFFFFFFFF DUP3 GT ISZERO PUSH2 0x9D7 JUMPI PUSH2 0x9D6 PUSH2 0xBE4 JUMP JUMPDEST JUMPDEST PUSH2 0x9E0 DUP3 PUSH2 0xC27 JUMP JUMPDEST SWAP1 POP PUSH1 0x20 DUP2 ADD SWAP1 POP SWAP2 SWAP1 POP JUMP JUMPDEST PUSH1 0x0 DUP2 MLOAD SWAP1 POP SWAP2 SWAP1 POP JUMP JUMPDEST PUSH1 0x0 DUP3 DUP3 MSTORE PUSH1 0x20 DUP3 ADD SWAP1 POP SWAP3 SWAP2 POP POP JUMP JUMPDEST PUSH1 0x0 PUSH2 0xA14 DUP3 PUSH2 0xAD7 JUMP JUMPDEST SWAP2 POP PUSH2 0xA1F DUP4 PUSH2 0xAD7 JUMP JUMPDEST SWAP3 POP DUP3 PUSH32 0xFFFFFFFFFFFFFFFFFFFFFFFFFFFFFFFFFFFFFFFFFFFFFFFFFFFFFFFFFFFFFFFF SUB DUP3 GT ISZERO PUSH2 0xA54 JUMPI PUSH2 0xA53 PUSH2 0xB86 JUMP JUMPDEST JUMPDEST DUP3 DUP3 ADD SWAP1 POP SWAP3 SWAP2 POP POP JUMP JUMPDEST PUSH1 0x0 PUSH2 0xA6A DUP3 PUSH2 0xAD7 JUMP JUMPDEST SWAP2 POP PUSH2 0xA75 DUP4 PUSH2 0xAD7 JUMP JUMPDEST SWAP3 POP DUP3 DUP3 LT ISZERO PUSH2 0xA88 JUMPI PUSH2 0xA87 PUSH2 0xB86 JUMP JUMPDEST JUMPDEST DUP3 DUP3 SUB SWAP1 POP SWAP3 SWAP2 POP POP JUMP JUMPDEST PUSH1 0x0 PUSH2 0xA9E DUP3 PUSH2 0xAB7 JUMP JUMPDEST SWAP1 POP SWAP2 SWAP1 POP JUMP JUMPDEST PUSH1 0x0 PUSH2 0xAB0 DUP3 PUSH2 0xAB7 JUMP JUMPDEST SWAP1 POP SWAP2 SWAP1 POP JUMP JUMPDEST PUSH1 0x0 PUSH20 0xFFFFFFFFFFFFFFFFFFFFFFFFFFFFFFFFFFFFFFFF DUP3 AND SWAP1 POP SWAP2 SWAP1 POP JUMP JUMPDEST PUSH1 0x0 DUP2 SWAP1 POP SWAP2 SWAP1 POP JUMP JUMPDEST DUP3 DUP2 DUP4 CALLDATACOPY PUSH1 0x0 DUP4 DUP4 ADD MSTORE POP POP POP JUMP JUMPDEST PUSH1 0x0 JUMPDEST DUP4 DUP2 LT ISZERO PUSH2 0xB0E JUMPI DUP1 DUP3 ADD MLOAD DUP2 DUP5 ADD MSTORE PUSH1 0x20 DUP2 ADD SWAP1 POP PUSH2 0xAF3 JUMP JUMPDEST DUP4 DUP2 GT ISZERO PUSH2 0xB1D JUMPI PUSH1 0x0 DUP5 DUP5 ADD MSTORE JUMPDEST POP POP POP POP JUMP JUMPDEST PUSH1 0x0 PUSH1 0x2 DUP3 DIV SWAP1 POP PUSH1 0x1 DUP3 AND DUP1 PUSH2 0xB3B JUMPI PUSH1 0x7F DUP3 AND SWAP2 POP JUMPDEST PUSH1 0x20 DUP3 LT DUP2 EQ ISZERO PUSH2 0xB4F JUMPI PUSH2 0xB4E PUSH2 0xBB5 JUMP JUMPDEST JUMPDEST POP SWAP2 SWAP1 POP JUMP JUMPDEST PUSH2 0xB5E DUP3 PUSH2 0xC27 JUMP JUMPDEST DUP2 ADD DUP2 DUP2 LT PUSH8 0xFFFFFFFFFFFFFFFF DUP3 GT OR ISZERO PUSH2 0xB7D JUMPI PUSH2 0xB7C PUSH2 0xBE4 JUMP JUMPDEST JUMPDEST DUP1 PUSH1 0x40 MSTORE POP POP POP JUMP JUMPDEST PUSH32 0x4E487B7100000000000000000000000000000000000000000000000000000000 PUSH1 0x0 MSTORE PUSH1 0x11 PUSH1 0x4 MSTORE PUSH1 0x24 PUSH1 0x0 REVERT JUMPDEST PUSH32 0x4E487B7100000000000000000000000000000000000000000000000000000000 PUSH1 0x0 MSTORE PUSH1 0x22 PUSH1 0x4 MSTORE PUSH1 0x24 PUSH1 0x0 REVERT JUMPDEST PUSH32 0x4E487B7100000000000000000000000000000000000000000000000000000000 PUSH1 0x0 MSTORE PUSH1 0x41 PUSH1 0x4 MSTORE PUSH1 0x24 PUSH1 0x0 REVERT JUMPDEST PUSH1 0x0 DUP1 REVERT JUMPDEST PUSH1 0x0 DUP1 REVERT JUMPDEST PUSH1 0x0 DUP1 REVERT JUMPDEST PUSH1 0x0 DUP1 REVERT JUMPDEST PUSH1 0x0 PUSH1 0x1F NOT PUSH1 0x1F DUP4 ADD AND SWAP1 POP SWAP2 SWAP1 POP JUMP JUMPDEST PUSH32 0x596F75206861766520696E7375666669656E742066756E647320746F20776974 PUSH1 0x0 DUP3 ADD MSTORE PUSH32 0x6864726177000000000000000000000000000000000000000000000000000000 PUSH1 0x20 DUP3 ADD MSTORE POP JUMP JUMPDEST PUSH32 0x596F75206E65656420746F206465706F73697420736F6D6520616D6F756E7420 PUSH1 0x0 DUP3 ADD MSTORE PUSH32 0x6F66206D6F6E6579210000000000000000000000000000000000000000000000 PUSH1 0x20 DUP3 ADD MSTORE POP JUMP JUMPDEST PUSH32 0x596F75206D75737420626520746865206F776E657220746F2073657420746865 PUSH1 0x0 DUP3 ADD MSTORE PUSH32 0x206E616D65206F66207468652062616E6B000000000000000000000000000000 PUSH1 0x20 DUP3 ADD MSTORE POP JUMP JUMPDEST PUSH32 0x596F75206D75737420626520746865206F776E6572206F66207468652062616E PUSH1 0x0 DUP3 ADD MSTORE PUSH32 0x6B20746F2073656520616C6C2062616C616E6365732E00000000000000000000 PUSH1 0x20 DUP3 ADD MSTORE POP JUMP JUMPDEST PUSH2 0xD7D DUP2 PUSH2 0xA93 JUMP JUMPDEST DUP2 EQ PUSH2 0xD88 JUMPI PUSH1 0x0 DUP1 REVERT JUMPDEST POP JUMP JUMPDEST PUSH2 0xD94 DUP2 PUSH2 0xAA5 JUMP JUMPDEST DUP2 EQ PUSH2 0xD9F JUMPI PUSH1 0x0 DUP1 REVERT JUMPDEST POP JUMP JUMPDEST PUSH2 0xDAB DUP2 PUSH2 0xAD7 JUMP JUMPDEST DUP2 EQ PUSH2 0xDB6 JUMPI PUSH1 0x0 DUP1 REVERT JUMPDEST POP JUMP INVALID LOG2 PUSH5 0x6970667358 0x22 SLT KECCAK256 0x22 0xB6 0x4C 0xBF 0xB3 0xC8 0xB9 MULMOD 0xB5 DUP14 0xAE CALLCODE EXP CALL 0xDF CODECOPY DUP14 STOP DUP1 SLOAD SELFBALANCE 0x49 0xB8 0xE3 DUP3 0xB5 LOG2 SWAP3 0xA8 DUP9 0xA8 0xB0 PUSH5 0x736F6C6343 STOP ADDMOD SMOD STOP CALLER "
				},
				"gasEstimates": {
					"creation": {
						"codeDepositCost": "713400",
						"executionCost": "25013",
						"totalCost": "738413"
					},
					"external": {
						"bankName()": "infinite",
						"bankOwner()": "2555",
						"customerBalance(address)": "2859",
						"depositMoney()": "infinite",
						"getBankBalance()": "2624",
						"getCustomerBalance()": "2548",
						"setBankName(string)": "infinite",
						"withdrawMoney(address,uint256)": "infinite"
					}
				},
				"methodIdentifiers": {
					"bankName()": "27d35801",
					"bankOwner()": "e147aaa7",
					"customerBalance(address)": "37ebe47b",
					"depositMoney()": "16c05aa2",
					"getBankBalance()": "7b83b50b",
					"getCustomerBalance()": "a853409a",
					"setBankName(string)": "70142690",
					"withdrawMoney(address,uint256)": "f274c897"
				}
			},
			"userdoc": {
				"kind": "user",
				"methods": {},
				"version": 1
			}
		}
	}
}